:100000000C942A000C9447000C9447000C94470071
:100010000C9447000C9447000C9447000C94470044
:100020000C9447000C9447000C94B90D0C944700B5
:100030000C9447000C9447000C9447000C94470024
:100040000C9447000C9447000C9447000C94470014
:100050000C94470011241FBECFE5D4E0DEBFCDBF16
:1000600010E0A0E6B0E0E8E0F5E202C005900D92F5
:10007000A03AB107D9F710E0A0EAB0E001C01D92A4
:10008000AE3AB107E1F70E944E0E0C9482120C9426
:100090000000EF92FF920F931F937B018C0120E0F1
:1000A00030E040E05FE40E94490388238CF0C801FF
:1000B000B70120E030E040E05FE40E94C1010E940F
:1000C000A9039B01AC01205030404040504806C07D
:1000D000C801B7010E94A9039B01AC01B901CA0183
:1000E0001F910F91FF90EF900895A0E0B0E0EBE733
:1000F000F0E00C944B12DC012B01FA019C91923040
:1001000008F439C1EB018881823008F433C194309E
:1001100069F4843009F02FC111969C91119789815F
:10012000981709F428C1ACE8B0E025C1843009F47F
:1001300021C18230A9F4923009F01DC19A01AD01AC
:1001400088E0EA010990AE01E90109929E0181501F
:10015000C1F7E201898111969C918923818308C1AD
:10016000923009F407C112962D903C901397EB0141
:100170008A819B811496AD90BD90CD90DC901797AD
:10018000EC80FD800E811F819101281B390BB90184
:1001900037FF04C066277727621B730B6032710537
:1001A0000CF061C0121613066CF537014801062EDB
:1001B00004C096948794779467940A94D2F721E0C8
:1001C00030E040E050E004C0220F331F441F551FB1
:1001D0006A95D2F721503040404050402E213F21B7
:1001E00040235123211531054105510521F021E01E
:1001F00030E040E050E079018A01E628F72808293C
:1002000019293CC0232BD1F1260E371E350146019A
:10021000062E04C096948794779467940A94D2F734
:1002200021E030E040E050E004C0220F331F441FC3
:10023000551F6A95D2F721503040404050402A2146
:100240003B214C215D21211531054105510521F04E
:1002500021E030E040E050E059016A01A628B728CB
:10026000C828D9280BC0821593052CF01C01AA249C
:10027000BB24650103C0EE24FF24870111969C91E5
:10028000D20111968C91981709F445C0992339F041
:10029000A80197012A193B094C095D0906C0A6016E
:1002A00095012E193F09400B510B57FD08C01182D3
:1002B0003382228224833583468357831DC081E0A5
:1002C00081833382228288279927DC01821B930B4A
:1002D000A40BB50B84839583A683B7830DC0220F2F
:1002E000331F441F551F24833583468357838281E0
:1002F000938101979383828324813581468157813D
:10030000DA01C9010197A109B1098F5F9F4FAF4F72
:10031000BF4328F30BC0918333822282EA0CFB1C7B
:100320000C1D1D1DE482F5820683178383E0808304
:10033000248135814681578157FF1AC0C901AA27F8
:1003400097FDA095BA2F81709070A070B0705695EF
:10035000479537952795822B932BA42BB52B848318
:100360009583A683B7838281938101969383828349
:10037000DF0101C0D201CD01CDB7DEB7E2E10C94BF
:100380006712A0E2B0E0E7ECF1E00C945712698349
:100390007A838B839C832D833E834F835887E9E048
:1003A000EE2EF12CEC0EFD1ECE010196B7010E943F
:1003B000D2048E010F5E1F4FCE010596B8010E9438
:1003C000D2048A8991E089278A8BC701B801AE01DE
:1003D000475E5F4F0E9475000E94FD03A096E6E015
:1003E0000C947312A0E2B0E0E8EFF1E00C94571225
:1003F00069837A838B839C832D833E834F835887C5
:10040000F9E0EF2EF12CEC0EFD1ECE010196B701A6
:100410000E94D2048E010F5E1F4FCE010596B801D7
:100420000E94D204C701B801AE01475E5F4F0E942F
:1004300075000E94FD03A096E6E00C947312A0E202
:10044000B0E0E5E2F2E00C944B1269837A838B838F
:100450009C832D833E834F835887CE010196BE0136
:10046000675F7F4F0E94D204CE010596BE016F5E8A
:100470007F4F0E94D2049985923088F0898982301A
:10048000C8F0943019F4823051F404C0843029F457
:10049000923081F48CE890E0C6C0923049F420E0BC
:1004A0009A858A89981321E02A87CE010996BBC0D4
:1004B000823049F420E09A858A89981321E02A8BBA
:1004C000CE014196B0C02D843E844F8458886D88FB
:1004D0007E888F88988CEE24FF248701AA24BB2471
:1004E000650140E050E060E070E0E0E0F0E0C10174
:1004F00081709070892BE9F0E60CF71C081D191D1E
:100500009A01AB012A0D3B1D4C1D5D1D80E090E062
:10051000A0E0B0E0E614F7040805190520F481E036
:1005200090E0A0E0B0E0BA01A901480F591F6A1F8E
:100530007B1FAA0CBB1CCC1CDD1C97FE08C081E0F5
:1005400090E0A0E0B0E0A82AB92ACA2ADB2A3196B6
:10055000E032F10549F0660C771C881C991C569412
:10056000479437942794C3CFFA85EA892B893C892D
:100570008B859C85280F391F2E5F3F4F17C0CA01FE
:1005800081709070892B61F016950795F794E79428
:1005900080E090E0A0E0B0E8E82AF92A0A2B1B2BC3
:1005A00076956795579547952F5F3F4F77FDE7CF36
:1005B0000CC0440F551F661F771F17FD4160EE0CDE
:1005C000FF1C001F111F21503040403090E05907A0
:1005D00090E0690790E4790760F32B8F3C8FDB0193
:1005E000CA018F779070A070B07080349105A1051A
:1005F000B10561F447FD0AC0E114F10401051105DC
:1006000029F0405C5F4F6F4F7F4F40781A8EFE1786
:1006100011F081E08A8F4D8F5E8F6F8F78A383E01A
:10062000898FCE0149960E94FD03A096E2E10C94C9
:100630006712A8E1B0E0EFE1F3E00C945712698390
:100640007A838B839C832D833E834F83588789E0F5
:10065000E82EF12CEC0EFD1ECE010196B7010E9492
:10066000D2048E010F5E1F4FCE010596B8010E9485
:10067000D2048985823040F08989823028F0C70110
:10068000B8010E944A0501C08FEF6896E6E00C941D
:100690007312A8E1B0E0EFE4F3E00C945712698321
:1006A0007A838B839C832D833E834F83588789E095
:1006B000E82EF12CEC0EFD1ECE010196B7010E9432
:1006C000D2048E010F5E1F4FCE010596B8010E9425
:1006D000D2048985823040F08989823028F0C701B0
:1006E000B8010E944A0501C08FEF6896E6E00C94BD
:1006F0007312A8E1B0E0EFE7F3E00C9457126983BE
:100700007A838B839C832D833E834F83588789E034
:10071000E82EF12CEC0EFD1ECE010196B7010E94D1
:10072000D2048E010F5E1F4FCE010596B8010E94C4
:10073000D2048985823040F08989823028F0C7014F
:10074000B8010E944A0501C081E06896E6E00C9479
:100750007312ACE0B0E0EFEAF3E00C945B12698353
:100760007A838B839C83CE010196BE016B5F7F4FA2
:100770000E94D2048D81823061F1823050F1843048
:1007800021F48E81882351F12EC02F81388537FDC9
:1007900020C06E812F3131051CF06623F9F023C093
:1007A0008EE190E0821B930B29853A854B855C8511
:1007B00004C056954795379527958A95D2F76623B5
:1007C000B1F050954095309521953F4F4F4F5F4F79
:1007D0000EC020E030E040E050E009C02FEF3FEFD6
:1007E0004FEF5FE704C020E030E040E050E8B9019F
:1007F000CA012C96E2E00C947712DF92EF92FF92FE
:100800000F931F93FC01E480F58006811781D1804E
:100810008081823048F480E090E0A0E1B0E0E82AF6
:10082000F92A0A2B1B2BA5C0843009F49FC0823003
:1008300021F4EE24FF24870105C0E114F104010531
:10084000110519F4E0E0F0E096C0628173819FEF3A
:10085000623879070CF05BC022E83FEF261B370BAC
:100860002A3131052CF020E030E040E050E02AC091
:10087000B801A701022E04C0769567955795479554
:100880000A94D2F781E090E0A0E0B0E004C0880FC5
:10089000991FAA1FBB1F2A95D2F70197A109B10979
:1008A0008E219F21A023B1230097A105B10521F03E
:1008B00081E090E0A0E0B0E09A01AB01282B392B59
:1008C0004A2B5B2BDA01C9018F779070A070B07052
:1008D00080349105A105B10539F427FF09C0205CDA
:1008E0003F4F4F4F5F4F04C0215C3F4F4F4F5F4F13
:1008F000E0E0F0E02030A0E03A07A0E04A07A0E402
:100900005A0710F0E1E0F0E079018A0127C0603871
:10091000710564F5FB01E158FF4FD801C7018F77DE
:100920009070A070B07080349105A105B10539F4C4
:10093000E7FE0DC080E490E0A0E0B0E004C08FE3EB
:1009400090E0A0E0B0E0E80EF91E0A1F1B1F17FFA1
:1009500005C016950795F794E794319687E01695AC
:100960000795F794E7948A95D1F705C0EE24FF2404
:100970008701EFEFF0E06E2F679566276795902F60
:100980009F77D794DD24D7948E2F8695492F462BB9
:10099000582F5D29B701CA011F910F91FF90EF9069
:1009A000DF900895FC01DB01408151812281622F9B
:1009B0006F7770E0221F2227221F9381892F880FD3
:1009C000822B282F30E0991F9927991F11969C930D
:1009D000119721153105A9F54115510561057105DD
:1009E00011F482E037C082E89FEF13969C938E93B8
:1009F00012979A01AB0167E0220F331F441F551F66
:100A00006A95D1F783E08C930DC0220F331F441FEA
:100A1000551F12968D919C911397019713969C9355
:100A20008E931297203080E0380780E0480780E4FA
:100A3000580758F314962D933D934D935C93179755
:100A400008952F3F310579F4411551056105710570
:100A500019F484E08C93089564FF03C081E08C93C3
:100A600012C01C9210C02F57304013963C932E9307
:100A7000129783E08C9387E0440F551F661F771F02
:100A80008A95D1F7706414964D935D936D937C9322
:100A9000179708951F93DC01FB019C91923008F495
:100AA00047C08081823008F443C0943051F41196DD
:100AB0001C91843099F58181682F70E0611B710968
:100AC0003FC0843021F0923031F48230B9F181811D
:100AD000882389F12DC011961C9111978230F1F075
:100AE00081811817D9F412962D913C911397828128
:100AF00093818217930794F028173907BCF0149656
:100B00008D919D910D90BC91A02D248135814681C0
:100B10005781281739074A075B0718F4112341F05A
:100B20000AC082179307A407B50740F4112319F0F0
:100B300061E070E005C06FEF7FEF02C060E070E041
:100B4000CB011F910895DF93CF93CDB7DEB7A7E216
:100B5000B0E0E7E2F0E0808180648C93A7E2B0E04F
:100B6000E7E2F0E080818F778C93A6E2B0E0E6E2E6
:100B7000F0E08081887F8C93A6E2B0E0E6E2F0E0CE
:100B8000808187608C93A7E2B0E0E7E2F0E08081AB
:100B900080628C93A6E2B0E0E6E2F0E080818068BB
:100BA0008C93CF91DF910895DF93CF930F92CDB7C0
:100BB000DEB78983A7E2B0E0E7E2F0E08081807EE3
:100BC0008C93A7E2B0E0E7E2F0E090818981892B85
:100BD0008C93A6E2B0E0E6E2F0E0808180648C9342
:100BE000E6E2F0E0808182958F70882F90E081703E
:100BF00090700097A9F3A6E2B0E0E6E2F0E0808111
:100C000080618C93E5E2F0E080810F90CF91DF91DD
:100C10000895DF93CF9300D000D000D0CDB7DEB7DA
:100C20008A836B8319828A81843028F081E08983EA
:100C300029812E8334C08A81282F30E03D832C8384
:100C40008C819D8181309105D1F02C813D812230B4
:100C500031052CF48C819D81009761F01EC02C81A0
:100C60003D812230310581F08C819D818330910559
:100C700081F013C0EBE3F0E08B8180830EC0E8E3EA
:100C8000F0E08B81808309C0E5E3F0E08B81808315
:100C900004C0E2E3F0E08B81808399819E838E81A2
:100CA00026960FB6F894DEBF0FBECDBFCF91DF9171
:100CB0000895DF93CF93CDB7DEB729970FB6F89499
:100CC000DEBF0FBECDBF8A836B834C8319828A81BE
:100CD000843028F081E0898329812987F4C08B81C1
:100CE000883028F081E0898339813987ECC08C8194
:100CF000813009F06FC08A81282F30E038872F8338
:100D00008F8198858130910549F12F813885223076
:100D100031052CF48F819885009761F0D2C02F8126
:100D200038852230310571F18F81988583309105A6
:100D3000E9F1C7C0ABE3B0E0EBE3F0E08081482F1E
:100D40008B81282F30E081E090E0022E02C0880FD6
:100D5000991F0A94E2F7842B8C93B3C0A8E3B0E008
:100D6000E8E3F0E08081482F8B81282F30E081E09C
:100D700090E0022E02C0880F991F0A94E2F7842B9C
:100D80008C939FC0A5E3B0E0E5E3F0E08081482FBD
:100D90008B81282F30E081E090E0022E02C0880F86
:100DA000991F0A94E2F7842B8C938BC0A2E3B0E0E6
:100DB000E2E3F0E08081482F8B81282F30E081E052
:100DC00090E0022E02C0880F991F0A94E2F7842B4C
:100DD0008C9377C08C81882309F073C08A81282F77
:100DE00030E03E832D838D819E818130910559F1C4
:100DF0002D813E81223031052CF48D819E8100971A
:100E000069F05FC02D813E812230310589F18D81ED
:100E10009E818330910509F440C053C0ABE3B0E03C
:100E2000EBE3F0E08081482F8B81282F30E081E0D8
:100E300090E0022E02C0880F991F0A94E2F7809575
:100E400084238C933EC0A8E3B0E0E8E3F0E0808127
:100E5000482F8B81282F30E081E090E0022E02C0E5
:100E6000880F991F0A94E2F7809584238C9329C0F8
:100E7000A5E3B0E0E5E3F0E08081482F8B81282FE7
:100E800030E081E090E0022E02C0880F991F0A94A2
:100E9000E2F7809584238C9314C0A2E3B0E0E2E3F0
:100EA000F0E08081482F8B81282F30E081E090E0B6
:100EB000022E02C0880F991F0A94E2F780958423BE
:100EC0008C9399819987898529960FB6F894DEBF0E
:100ED0000FBECDBFCF91DF910895DF93CF9300D0A8
:100EE00000D000D0CDB7DEB78A836B8319828A81A8
:100EF000843028F081E0898329812E8334C08A815F
:100F0000282F30E03D832C838C819D818130910599
:100F1000D1F02C813D81223031052CF48C819D81D2
:100F2000009761F01EC02C813D812230310581F097
:100F30008C819D818330910581F013C0EAE3F0E05C
:100F40008B8180830EC0E7E3F0E08B81808309C052
:100F5000E4E3F0E08B81808304C0E1E3F0E08B8187
:100F6000808399819E838E8126960FB6F894DEBF8A
:100F70000FBECDBFCF91DF910895DF93CF93CDB753
:100F8000DEB729970FB6F894DEBF0FBECDBF8A83B8
:100F90006B834C8319828A81843028F081E08983B5
:100FA00029812987F4C08B81883028F081E08983EA
:100FB00039813987ECC08C81813009F06FC08A811A
:100FC000282F30E038872F838F81988581309105D5
:100FD00049F12F813885223031052CF48F81988595
:100FE000009761F0D2C02F8138852230310571F130
:100FF0008F81988583309105E9F1C7C0AAE3B0E0FD
:10100000EAE3F0E08081482F8B81282F30E081E0F7
:1010100090E0022E02C0880F991F0A94E2F7842BF9
:101020008C93B3C0A7E3B0E0E7E3F0E08081482F02
:101030008B81282F30E081E090E0022E02C0880FE3
:10104000991F0A94E2F7842B8C939FC0A4E3B0E02D
:10105000E4E3F0E08081482F8B81282F30E081E0AD
:1010600090E0022E02C0880F991F0A94E2F7842BA9
:101070008C938BC0A1E3B0E0E1E3F0E08081482FE6
:101080008B81282F30E081E090E0022E02C0880F93
:10109000991F0A94E2F7842B8C9377C08C81882364
:1010A00009F073C08A81282F30E03E832D838D8123
:1010B0009E818130910559F12D813E81223031058B
:1010C0002CF48D819E81009769F05FC02D813E8157
:1010D0002230310589F18D819E818330910509F49B
:1010E00040C053C0AAE3B0E0EAE3F0E08081482FBB
:1010F0008B81282F30E081E090E0022E02C0880F23
:10110000991F0A94E2F7809584238C933EC0A7E34D
:10111000B0E0E7E3F0E08081482F8B81282F30E0BA
:1011200081E090E0022E02C0880F991F0A94E2F736
:10113000809584238C9329C0A4E3B0E0E4E3F0E03D
:101140008081482F8B81282F30E081E090E0022EB3
:1011500002C0880F991F0A94E2F7809584238C932C
:1011600014C0A1E3B0E0E1E3F0E08081482F8B817F
:10117000282F30E081E090E0022E02C0880F991FF6
:101180000A94E2F7809584238C93998199878985C5
:1011900029960FB6F894DEBF0FBECDBFCF91DF9179
:1011A0000895DF93CF93CDB7DEB727970FB6F894A6
:1011B000DEBF0FBECDBF8A837C836B8319828A8199
:1011C000843028F081E0898329812F833CC08A8183
:1011D000282F30E03E832D838D819E8181309105C3
:1011E000E1F02D813E81223031052CF48D819E81EC
:1011F000009761F026C02D813E8122303105A1F09B
:101200008D819E8183309105B1F01BC0E9E3F0E050
:101210008081EB81FC81808314C0E6E3F0E0808173
:10122000EB81FC8180830DC0E3E3F0E08081EB8102
:10123000FC81808306C0E0E3F0E08081EB81FC81EB
:10124000808399819F838F8127960FB6F894DEBFA4
:101250000FBECDBFCF91DF910895DF93CF93CDB770
:10126000DEB728970FB6F894DEBF0FBECDBF8A83D6
:101270006B835D834C8319828A81843028F081E0FE
:101280008983298128877AC08B81883028F081E082
:1012900089833981388772C08A81482F50E05F8303
:1012A0004E838E819F818130910559F12E813F813E
:1012B0002230310534F44E815F814115510569F0CA
:1012C0005BC08E819F818230910579F12E813F81B3
:1012D0002330310509F43DC04FC0E9E3F0E08081DF
:1012E000282F30E08B81882F90E0A90102C055950E
:1012F00047958A95E2F7CA018170EC81FD81808370
:101300003BC0E6E3F0E08081282F30E08B81882F1E
:1013100090E0A90102C0559547958A95E2F7CA0168
:101320008170EC81FD81808327C0E3E3F0E0808160
:10133000282F30E08B81882F90E0A90102C05595BD
:1013400047958A95E2F7CA018170EC81FD8180831F
:1013500013C0E0E3F0E08081282F30E08B81882FFC
:1013600090E0A90102C0559547958A95E2F7CA0118
:101370008170EC81FD81808359815887888528960A
:101380000FB6F894DEBF0FBECDBFCF91DF910895A9
:10139000DF93CF93CDB7DEB7AFE5B0E0EFE5F0E098
:1013A000808180688C93CF91DF910895DF93CF93F4
:1013B000CDB7DEB7AFE5B0E0EFE5F0E080818F7745
:1013C0008C93CF91DF910895DF93CF93CDB7DEB7A4
:1013D0002F970FB6F894DEBF0FBECDBF8F8783E087
:1013E00061E00E946D0780E061E041E00E94BD077E
:1013F00080E062E041E00E94BD0780E063E041E000
:101400000E94BD0780E061E040E00E94590680E054
:1014100062E040E00E94590683E06F850E94090661
:1014200080E063E041E00E94590680E090E0A0E0A7
:10143000B0E48B879C87AD87BE876B857C858D8567
:101440009E8520E030E04AE753E40E941F02DC0161
:10145000CB018F839887A987BA876F817885898523
:101460009A8520E030E040E85FE30E94790388231A
:101470002CF481E090E09E838D833FC06F8178855E
:1014800089859A8520E03FEF4FE757E40E941903D2
:1014900018164CF56B857C858D859E8520E030E0A7
:1014A00040E251E40E941F02DC01CB01BC01CD01EE
:1014B0000E944900DC01CB019E838D830FC089E12E
:1014C00090E09C838B838B819C810197F1F79C83B7
:1014D0008B838D819E8101979E838D838D819E81DB
:1014E000009769F714C06F81788589859A850E9475
:1014F0004900DC01CB019E838D838D819E819A837F
:10150000898389819A810197F1F79A83898380E0A1
:1015100063E040E00E9459062F960FB6F894DEBFB4
:101520000FBECDBFCF91DF910895DF93CF93CDB79D
:10153000DEB72E970FB6F894DEBF0FBECDBF80E0AA
:1015400090E0A0E2B2E48B879C87AD87BE876B8575
:101550007C858D859E8520E030E04AE753E40E943B
:101560001F02DC01CB018F839887A987BA876F811F
:10157000788589859A8520E030E040E85FE30E9425
:10158000790388232CF481E090E09E838D833FC013
:101590006F81788589859A8520E03FEF4FE757E492
:1015A0000E94190318164CF56B857C858D859E85E8
:1015B00020E030E040E251E40E941F02DC01CB0158
:1015C000BC01CD010E944900DC01CB019E838D83CB
:1015D0000FC089E190E09C838B838B819C81019774
:1015E000F1F79C838B838D819E8101979E838D83F0
:1015F0008D819E81009769F714C06F8178858985F8
:101600009A850E944900DC01CB019E838D838D81E8
:101610009E819A83898389819A810197F1F79A83C0
:10162000898388E30E94E4098CE00E94E40981E058
:101630000E94E4092E960FB6F894DEBF0FBECDBF10
:10164000CF91DF910895DF93CF93CDB7DEB72F977A
:101650000FB6F894DEBF0FBECDBF8F8780E061E08C
:1016600041E00E94590680E062E040E00E94590695
:1016700083E06F850E94090680E063E041E00E94FC
:10168000590680E090E0A0E0B0E48B879C87AD87AE
:10169000BE876B857C858D859E8520E030E04AE79E
:1016A00053E40E941F02DC01CB018F839887A98736
:1016B000BA876F81788589859A8520E030E040E897
:1016C0005FE30E94790388232CF481E090E09E83FD
:1016D0008D833FC06F81788589859A8520E03FEFB3
:1016E0004FE757E40E94190318164CF56B857C856B
:1016F0008D859E8520E030E040E251E40E941F028B
:10170000DC01CB01BC01CD010E944900DC01CB0111
:101710009E838D830FC089E190E09C838B838B81B6
:101720009C810197F1F79C838B838D819E8101972A
:101730009E838D838D819E81009769F714C06F8190
:10174000788589859A850E944900DC01CB019E83BA
:101750008D838D819E819A83898389819A81019766
:10176000F1F79A83898380E063E040E00E945906A4
:101770002F960FB6F894DEBF0FBECDBFCF91DF918D
:101780000895DF93CF9300D00F92CDB7DEB79B8340
:101790008A8319820EC08981282F30E08A819B813B
:1017A000FC01E20FF31F80810E94230B89818F5F70
:1017B00089838981282F30E08A819B81FC01E20F97
:1017C000F31F8081882339F70F900F900F90CF91EE
:1017D000DF910895DF93CF9300D00F92CDB7DEB79E
:1017E0008A836B838A81882319F48B81898306C05D
:1017F0008A81813019F48B81805C8983898180683A
:101800000E94E4090F900F900F90CF91DF910895FF
:10181000DF93CF93CDB7DEB727970FB6F894DEBF2F
:101820000FBECDBF6C837D838E839F831A828C8194
:101830009D81AE81BF810097A105B105B9F5809169
:1018400094000E94230B4EC08C819D81AE81BF818C
:101850002AE030E040E050E0BC01CD010E942912B6
:10186000DC01CB018B838C819D81AE81BF812AE01D
:1018700030E040E050E0BC01CD010E942912DA01C5
:10188000C9018C839D83AE83BF838A81282F30E07A
:101890008B81882F90E0FC01EC56FF4F8081F9018D
:1018A000E056FF4F80838A818F5F8A838C819D8180
:1018B000AE81BF810097A105B10531F68A818150C3
:1018C00089830DC08981992787FD9095FC01E05699
:1018D000FF4F80810E94230B8981815089838981F8
:1018E000882384F727960FB6F894DEBF0FBECDBFCE
:1018F000CF91DF910895DF93CF93CDB7DEB781E02D
:101900000E94E409CF91DF910895DF93CF9300D037
:1019100000D00F92CDB7DEB78D838D810E94D405A4
:101920008C838C81882F90E0A0E0B0E028E833E140
:1019300040E050E0BC01CD010E94F611DC01CB017A
:101940002FEF30E040E050E0BC01CD010E942912B1
:10195000DA01C9019B838A838A819B812AE030E076
:10196000B9010E941512CB01898389810F900F90D4
:101970000F900F900F90CF91DF910895DF93CF9349
:10198000CDB7DEB781E064E040E00E94BD0781E0B2
:1019900064E041E00E94590681E065E041E00E9478
:1019A000BD0781E066E040E00E94BD0781E067E09E
:1019B00041E00E94BD07ADE2B0E0EDE2F0E08081E1
:1019C00080618C93ADE2B0E0EDE2F0E08081816077
:1019D0008C93ADE2B0E0EDE2F0E080818D7F8C93FE
:1019E000AEE2B0E0EEE2F0E080818E7F8C93ADE27B
:1019F000B0E0EDE2F0E0808180648C93CF91DF91E4
:101A00000895DF93CF93CDB7DEB781E064E040E087
:101A10000E94BD0781E065E040E00E94BD0781E0D3
:101A200066E041E00E94BD0781E067E040E00E947F
:101A3000BD0780E060E041E00E94BD07ADE2B0E09C
:101A4000EDE2F0E080818F7E8C93ADE2B0E0EDE2DC
:101A5000F0E0808180648C93CF91DF910895DF93D3
:101A6000CF930F92CDB7DEB78983EFE2F0E08981A3
:101A70008083EEE2F0E080818823DCF7EFE2F0E0A3
:101A800080810F90CF91DF910895DF93CF930F92D4
:101A9000CDB7DEB78983EFE2F0E089818083EEE2A3
:101AA000F0E080818823DCF70F90CF91DF910895DB
:101AB000DF93CF93CDB7DEB7EEE2F0E080818823ED
:101AC000DCF7EFE2F0E08081CF91DF910895DF93C2
:101AD000CF93CDB7DEB7A3E5B0E0E3E5F0E08081DA
:101AE0008F7B8C93A3E5B0E0E3E5F0E08081886034
:101AF0008C93A9E5B0E0E9E5F0E0808182608C9309
:101B0000ECE5F0E08AEF8083A3E5B0E0E3E5F0E008
:101B100080818E7F8C93A3E5B0E0E3E5F0E08081E7
:101B200082608C93A3E5B0E0E3E5F0E080818B7FF9
:101B30008C93CF91DF910895DF93CF9300D00F92D4
:101B4000CDB7DEB79B838A8319828A819B810097F8
:101B500039F08A819B819093AB008093AA0002C0E8
:101B600081E0898389810F900F900F90CF91DF9151
:101B700008951F920F920FB60F9211242F933F9347
:101B80004F935F936F937F938F939F93AF93BF9385
:101B9000EF93FF93DF93CF93CDB7DEB78091AA0089
:101BA0009091AB00009729F0E091AA00F091AB0072
:101BB0000995CF91DF91FF91EF91BF91AF919F91E7
:101BC0008F917F916F915F914F913F912F910F90E6
:101BD0000FBE0F901F901895DF93CF93CDB7DEB750
:101BE000E0E2F0E08FEF8083A1E2B0E0E1E2F0E03C
:101BF00080818E7F8C93A1E2B0E0E1E2F0E0808111
:101C00008D7F8C93E6E5F0E084E08083CF91DF91D7
:101C10000895DF93CF93CDB7DEB7E6E5F0E084EA31
:101C20008083E6E5F0E080818823DCF7CF91DF91C7
:101C30000895DF93CF93CDB7DEB7E6E5F0E084E912
:101C40008083CF91DF910895DF93CF930F92CDB72B
:101C5000DEB78983E3E2F0E089818083E6E5F0E0A6
:101C600084E88083E6E5F0E080818823DCF70F904C
:101C7000CF91DF910895DF93CF93CDB7DEB7E6E53F
:101C8000F0E084E88083E6E5F0E080818823DCF7FB
:101C9000E3E2F0E08081CF91DF910895DF93CF936D
:101CA000CDB7DEB761970FB6F894DEBF0FBECDBFDC
:101CB0000E94950A0E94A3050E94670D8CE09FE098
:101CC0000E949C0D0E94C80980E090E0AAE7B4E45D
:101CD0008B879C87AD87BE876B857C858D859E8530
:101CE00020E030E04AE753E40E941F02DC01CB0110
:101CF0008F839887A987BA876F81788589859A8528
:101D000020E030E040E85FE30E94790388232CF470
:101D100081E090E09E838D833FC06F8178858985C7
:101D20009A8520E03FEF4FE757E40E941903181609
:101D30004CF56B857C858D859E8520E030E040E20A
:101D400051E40E941F02DC01CB01BC01CD010E94C5
:101D50004900DC01CB019E838D830FC089E190E0B7
:101D60009C838B838B819C810197F1F79C838B8370
:101D70008D819E8101979E838D838D819E810097A9
:101D800069F714C06F81788589859A850E9449001A
:101D9000DC01CB019E838D838D819E819A83898313
:101DA00089819A810197F1F79A8389830E94010DB5
:101DB0000E94580D898B0E94580D888B8889813329
:101DC00061F4898968890E9444100E94580D8F87A8
:101DD00089896F850E94B91077CF8889823361F431
:101DE000898968890E9444100E94580D8F878989CB
:101DF0006F850E944B1168CF8889833309F064CFC7
:101E0000898968890E9444100E94580D8F878989AA
:101E10006F850E94021158CFDF93CF93CDB7DEB705
:101E20002F970FB6F894DEBF0FBECDBF8091AC00E8
:101E30009091AD0001969093AD008093AC0080919D
:101E4000AC009091AD0023E0883E920709F0E9C014
:101E50000E94E2118F878F85823398F581E060E0E0
:101E600040E00E94590680E066E041E00E94BD0724
:101E700080E066E040E00E94590680E067E041E0D3
:101E80000E94BD0780E067E041E00E9459060E9481
:101E90007B0C80E060E00E94EA0B80E690E00E940C
:101EA000C10B8F85882F90E00196AA2797FDA095FA
:101EB000BA2FBC01CD010E94080C83E60E94230BBF
:101EC000B0C08F85823308F4ACC080E067E041E0A9
:101ED0000E94BD0780E067E040E00E94590680E074
:101EE00066E041E00E94BD0780E066E041E00E94BC
:101EF000590681E060E041E00E94BD0781E060E0BA
:101F000041E00E9459060E947B0C80E065E00E943F
:101F1000EA0B8EE690E00E94C10B80E090E0AFE219
:101F2000B4E48B879C87AD87BE876B857C858D8568
:101F30009E8520E030E04AE753E40E941F02DC0166
:101F4000CB018F839887A987BA876F817885898528
:101F50009A8520E030E040E85FE30E94790388231F
:101F60002CF481E090E09E838D833FC06F81788563
:101F700089859A8520E03FEF4FE757E40E941903D7
:101F800018164CF56B857C858D859E8520E030E0AC
:101F900040E251E40E941F02DC01CB01BC01CD01F3
:101FA0000E944900DC01CB019E838D830FC089E133
:101FB00090E09C838B838B819C810197F1F79C83BC
:101FC0008B838D819E8101979E838D838D819E81E0
:101FD000009769F714C06F81788589859A850E947A
:101FE0004900DC01CB019E838D838D819E819A8384
:101FF000898389819A810197F1F79A8389830E9465
:102000007B0C80E063E00E94EA0B86E790E00E9490
:10201000C10B81E064E00E94EA0B82E890E00E943C
:10202000C10B2F960FB6F894DEBF0FBECDBFCF9178
:10203000DF910895DF93CF93CDB7DEB7EBE3F0E008
:10204000808164E041E00E945906EBE3F0E080818A
:1020500065E040E00E945906CF91DF910895DF933B
:10206000CF93CDB7DEB7EBE3F0E0808164E040E0F2
:102070000E945906EBE3F0E0808165E041E00E94B8
:102080005906CF91DF910895DF93CF9300D00F923F
:10209000CDB7DEB78A836B8319828A81813371F56C
:1020A0008B81813361F42EE930E082E060E0A901A8
:1020B0000E942D0980919E000E942F0D1FC08B81D0
:1020C000823369F42EE930E082E062E0A9010E94E7
:1020D0002D09898380919E000E942F0D0FC08B8156
:1020E000833361F42EE930E082E061E0A9010E94CF
:1020F0002D09898380919E000E942F0D8A81823351
:1021000091F58B81813371F42EE930E082E063E058
:10211000A9010E942D0980939E0080919E000E943B
:102120002F0D21C08B81823371F42EE930E082E0E3
:1021300065E0A9010E942D0980939E0080919E0078
:102140000E942F0D10C08B81833369F42EE930E09B
:1021500082E064E0A9010E942D0980939E00809195
:102160009E000E942F0D0F900F900F90CF91DF9146
:102170000895DF93CF9300D0CDB7DEB789836A830C
:1021800089818133E1F48A81813359F482E060E00E
:1021900041E00E94BD0782E060E041E00E945906F4
:1021A0002CC08A81823349F582E060E041E00E94E0
:1021B000BD0782E060E040E00E9459061EC08981B0
:1021C0008233D9F48A81813359F482E063E041E0BB
:1021D0000E94BD0782E063E041E00E9459060DC005
:1021E0008A81823351F482E063E041E00E94BD07BE
:1021F00082E063E040E00E9459060F900F90CF917B
:10220000DF910895DF93CF9300D0CDB7DEB78983F8
:102210006A8389818133E1F48A81813359F482E0D0
:1022200061E041E00E94BD0782E061E041E00E9480
:1022300059062CC08A81823349F582E061E041E091
:102240000E94BD0782E061E040E00E9459061EC086
:1022500089818233D9F48A81813359F482E064E040
:1022600041E00E94BD0782E064E041E00E9459061F
:102270000DC08A81823351F482E064E041E00E9423
:10228000BD0782E064E040E00E9459060F900F9085
:10229000CF91DF910895DF93CF9300D0CDB7DEB714
:1022A00089836A838981813389F58A818133A9F49D
:1022B00082E062E041E00E94BD0782E062E041E02E
:1022C0000E94590680E065E041E00E94BD0780E081
:1022D00065E041E00E9459064BC08A81823309F0D3
:1022E00047C082E062E041E00E94BD0782E062E018
:1022F00040E00E94590680E065E041E00E94BD0791
:1023000080E065E040E00E94590632C08981823356
:1023100079F58A818133A9F482E065E041E00E9489
:10232000BD0782E065E041E00E94590680E064E07C
:1023300041E00E94BD0780E064E041E00E94590650
:1023400017C08A818233A1F482E065E041E00E94F7
:10235000BD0782E065E040E00E94590680E064E04D
:1023600041E00E94BD0780E064E040E00E94590621
:102370000F900F90CF91DF910895DF93CF930F923D
:10238000CDB7DEB789838981813359F482E066E075
:1023900041E00E94BD0782E066E041E00E945906EC
:1023A0000DC08981823351F482E067E041E00E94F0
:1023B000BD0782E067E041E00E9459060F90CF918F
:1023C000DF910895DF93CF930F92CDB7DEB780E012
:1023D00060E040E00E94BD07198280E00E94850C09
:1023E000898389810F90CF91DF910895629FD001F9
:1023F000739FF001829FE00DF11D649FE00DF11DC0
:10240000929FF00D839FF00D749FF00D659FF00D6E
:102410009927729FB00DE11DF91F639FB00DE11D5B
:10242000F91FBD01CF0111240895AA1BBB1B51E167
:1024300007C0AA1FBB1FA617B70710F0A61BB70B34
:10244000881F991F5A95A9F780959095BC01CD01D9
:102450000895A1E21A2EAA1BBB1BFD010DC0AA1FE5
:10246000BB1FEE1FFF1FA217B307E407F50720F0FD
:10247000A21BB30BE40BF50B661F771F881F991F78
:102480001A9469F760957095809590959B01AC01C1
:10249000BD01CF0108952F923F924F925F926F92AC
:1024A0007F928F929F92AF92BF92CF92DF92EF92E4
:1024B000FF920F931F93CF93DF93CDB7DEB7CA1B65
:1024C000DB0B0FB6F894DEBF0FBECDBF09942A8890
:1024D000398848885F846E847D848C849B84AA8438
:1024E000B984C884DF80EE80FD800C811B81AA81C5
:1024F000B981CE0FD11D0FB6F894DEBF0FBECDBF90
:08250000ED010895F894FFCFEE
:1025080054656D70657261747572653D2000574140
:10251800524E494E470054454D504552415455522C
:102528004500494E435245415345440000000000D0
:102538000000000030313233343536373839010085
:00000001FF
