:100000000C942A000C9447000C9447000C94470071
:100010000C9447000C9447000C9447000C94051E68
:100020000C9447000C9447000C9447000C94470034
:100030000C9447000C9447000C9447000C94470024
:100040000C9447000C9447000C9447000C94470014
:100050000C94470011241FBECFE5D4E0DEBFCDBF16
:1000600011E0A0E6B0E0ECE4F4E502C005900D92EA
:10007000AA32B107D9F717E0AAE2B1E001C01D9298
:10008000A93BB107E1F70E9483180C94242A0C9431
:100090000000EF92FF920F931F937B018C0120E0F1
:1000A00030E040E05FE40E94490388238CF0C801FF
:1000B000B70120E030E040E05FE40E94C1010E940F
:1000C000A9039B01AC01205030404040504806C07D
:1000D000C801B7010E94A9039B01AC01B901CA0183
:1000E0001F910F91FF90EF900895A0E0B0E0EBE733
:1000F000F0E00C94CE29DC012B01FA019C919230A6
:1001000008F439C1EB018881823008F433C194309E
:1001100069F4843009F02FC111969C91119789815F
:10012000981709F428C1A4EFB0E025C1843009F480
:1001300021C18230A9F4923009F01DC19A01AD01AC
:1001400088E0EA010990AE01E90109929E0181501F
:10015000C1F7E201898111969C918923818308C1AD
:10016000923009F407C112962D903C901397EB0141
:100170008A819B811496AD90BD90CD90DC901797AD
:10018000EC80FD800E811F819101281B390BB90184
:1001900037FF04C066277727621B730B6032710537
:1001A0000CF061C0121613066CF537014801062EDB
:1001B00004C096948794779467940A94D2F721E0C8
:1001C00030E040E050E004C0220F331F441F551FB1
:1001D0006A95D2F721503040404050402E213F21B7
:1001E00040235123211531054105510521F021E01E
:1001F00030E040E050E079018A01E628F72808293C
:1002000019293CC0232BD1F1260E371E350146019A
:10021000062E04C096948794779467940A94D2F734
:1002200021E030E040E050E004C0220F331F441FC3
:10023000551F6A95D2F721503040404050402A2146
:100240003B214C215D21211531054105510521F04E
:1002500021E030E040E050E059016A01A628B728CB
:10026000C828D9280BC0821593052CF01C01AA249C
:10027000BB24650103C0EE24FF24870111969C91E5
:10028000D20111968C91981709F445C0992339F041
:10029000A80197012A193B094C095D0906C0A6016E
:1002A00095012E193F09400B510B57FD08C01182D3
:1002B0003382228224833583468357831DC081E0A5
:1002C00081833382228288279927DC01821B930B4A
:1002D000A40BB50B84839583A683B7830DC0220F2F
:1002E000331F441F551F24833583468357838281E0
:1002F000938101979383828324813581468157813D
:10030000DA01C9010197A109B1098F5F9F4FAF4F72
:10031000BF4328F30BC0918333822282EA0CFB1C7B
:100320000C1D1D1DE482F5820683178383E0808304
:10033000248135814681578157FF1AC0C901AA27F8
:1003400097FDA095BA2F81709070A070B0705695EF
:10035000479537952795822B932BA42BB52B848318
:100360009583A683B7838281938101969383828349
:10037000DF0101C0D201CD01CDB7DEB7E2E10C94BF
:10038000EA29A0E2B0E0E7ECF1E00C94DA29698315
:100390007A838B839C832D833E834F835887E9E048
:1003A000EE2EF12CEC0EFD1ECE010196B7010E943F
:1003B000D2048E010F5E1F4FCE010596B8010E9438
:1003C000D2048A8991E089278A8BC701B801AE01DE
:1003D000475E5F4F0E9475000E94FD03A096E6E015
:1003E0000C94F629A0E2B0E0E8EFF1E00C94DA29F1
:1003F00069837A838B839C832D833E834F835887C5
:10040000F9E0EF2EF12CEC0EFD1ECE010196B701A6
:100410000E94D2048E010F5E1F4FCE010596B801D7
:100420000E94D204C701B801AE01475E5F4F0E942F
:1004300075000E94FD03A096E6E00C94F629A0E268
:10044000B0E0E5E2F2E00C94CE2969837A838B83F5
:100450009C832D833E834F835887CE010196BE0136
:10046000675F7F4F0E94D204CE010596BE016F5E8A
:100470007F4F0E94D2049985923088F0898982301A
:10048000C8F0943019F4823051F404C0843029F457
:10049000923081F484EF90E0C6C0923049F420E0BD
:1004A0009A858A89981321E02A87CE010996BBC0D4
:1004B000823049F420E09A858A89981321E02A8BBA
:1004C000CE014196B0C02D843E844F8458886D88FB
:1004D0007E888F88988CEE24FF248701AA24BB2471
:1004E000650140E050E060E070E0E0E0F0E0C10174
:1004F00081709070892BE9F0E60CF71C081D191D1E
:100500009A01AB012A0D3B1D4C1D5D1D80E090E062
:10051000A0E0B0E0E614F7040805190520F481E036
:1005200090E0A0E0B0E0BA01A901480F591F6A1F8E
:100530007B1FAA0CBB1CCC1CDD1C97FE08C081E0F5
:1005400090E0A0E0B0E0A82AB92ACA2ADB2A3196B6
:10055000E032F10549F0660C771C881C991C569412
:10056000479437942794C3CFFA85EA892B893C892D
:100570008B859C85280F391F2E5F3F4F17C0CA01FE
:1005800081709070892B61F016950795F794E79428
:1005900080E090E0A0E0B0E8E82AF92A0A2B1B2BC3
:1005A00076956795579547952F5F3F4F77FDE7CF36
:1005B0000CC0440F551F661F771F17FD4160EE0CDE
:1005C000FF1C001F111F21503040403090E05907A0
:1005D00090E0690790E4790760F32B8F3C8FDB0193
:1005E000CA018F779070A070B07080349105A1051A
:1005F000B10561F447FD0AC0E114F10401051105DC
:1006000029F0405C5F4F6F4F7F4F40781A8EFE1786
:1006100011F081E08A8F4D8F5E8F6F8F78A383E01A
:10062000898FCE0149960E94FD03A096E2E10C94C9
:10063000EA29A8E1B0E0EFE1F3E00C94DA2969835C
:100640007A838B839C832D833E834F83588789E0F5
:10065000E82EF12CEC0EFD1ECE010196B7010E9492
:10066000D2048E010F5E1F4FCE010596B8010E9485
:10067000D2048985823040F08989823028F0C70110
:10068000B8010E944A0501C08FEF6896E6E00C941D
:10069000F629A8E1B0E0EFE4F3E00C94DA296983ED
:1006A0007A838B839C832D833E834F83588789E095
:1006B000E82EF12CEC0EFD1ECE010196B7010E9432
:1006C000D2048E010F5E1F4FCE010596B8010E9425
:1006D000D2048985823040F08989823028F0C701B0
:1006E000B8010E944A0501C08FEF6896E6E00C94BD
:1006F000F629A8E1B0E0EFE7F3E00C94DA2969838A
:100700007A838B839C832D833E834F83588789E034
:10071000E82EF12CEC0EFD1ECE010196B7010E94D1
:10072000D2048E010F5E1F4FCE010596B8010E94C4
:10073000D2048985823040F08989823028F0C7014F
:10074000B8010E944A0501C081E06896E6E00C9479
:10075000F629ACE0B0E0EFEAF3E00C94DE2969831F
:100760007A838B839C83CE010196BE016B5F7F4FA2
:100770000E94D2048D81823061F1823050F1843048
:1007800021F48E81882351F12EC02F81388537FDC9
:1007900020C06E812F3131051CF06623F9F023C093
:1007A0008EE190E0821B930B29853A854B855C8511
:1007B00004C056954795379527958A95D2F76623B5
:1007C000B1F050954095309521953F4F4F4F5F4F79
:1007D0000EC020E030E040E050E009C02FEF3FEFD6
:1007E0004FEF5FE704C020E030E040E050E8B9019F
:1007F000CA012C96E2E00C94FA29DF92EF92FF9264
:100800000F931F93FC01E480F58006811781D1804E
:100810008081823048F480E090E0A0E1B0E0E82AF6
:10082000F92A0A2B1B2BA5C0843009F49FC0823003
:1008300021F4EE24FF24870105C0E114F104010531
:10084000110519F4E0E0F0E096C0628173819FEF3A
:10085000623879070CF05BC022E83FEF261B370BAC
:100860002A3131052CF020E030E040E050E02AC091
:10087000B801A701022E04C0769567955795479554
:100880000A94D2F781E090E0A0E0B0E004C0880FC5
:10089000991FAA1FBB1F2A95D2F70197A109B10979
:1008A0008E219F21A023B1230097A105B10521F03E
:1008B00081E090E0A0E0B0E09A01AB01282B392B59
:1008C0004A2B5B2BDA01C9018F779070A070B07052
:1008D00080349105A105B10539F427FF09C0205CDA
:1008E0003F4F4F4F5F4F04C0215C3F4F4F4F5F4F13
:1008F000E0E0F0E02030A0E03A07A0E04A07A0E402
:100900005A0710F0E1E0F0E079018A0127C0603871
:10091000710564F5FB01E158FF4FD801C7018F77DE
:100920009070A070B07080349105A105B10539F4C4
:10093000E7FE0DC080E490E0A0E0B0E004C08FE3EB
:1009400090E0A0E0B0E0E80EF91E0A1F1B1F17FFA1
:1009500005C016950795F794E794319687E01695AC
:100960000795F794E7948A95D1F705C0EE24FF2404
:100970008701EFEFF0E06E2F679566276795902F60
:100980009F77D794DD24D7948E2F8695492F462BB9
:10099000582F5D29B701CA011F910F91FF90EF9069
:1009A000DF900895FC01DB01408151812281622F9B
:1009B0006F7770E0221F2227221F9381892F880FD3
:1009C000822B282F30E0991F9927991F11969C930D
:1009D000119721153105A9F54115510561057105DD
:1009E00011F482E037C082E89FEF13969C938E93B8
:1009F00012979A01AB0167E0220F331F441F551F66
:100A00006A95D1F783E08C930DC0220F331F441FEA
:100A1000551F12968D919C911397019713969C9355
:100A20008E931297203080E0380780E0480780E4FA
:100A3000580758F314962D933D934D935C93179755
:100A400008952F3F310579F4411551056105710570
:100A500019F484E08C93089564FF03C081E08C93C3
:100A600012C01C9210C02F57304013963C932E9307
:100A7000129783E08C9387E0440F551F661F771F02
:100A80008A95D1F7706414964D935D936D937C9322
:100A9000179708951F93DC01FB019C91923008F495
:100AA00047C08081823008F443C0943051F41196DD
:100AB0001C91843099F58181682F70E0611B710968
:100AC0003FC0843021F0923031F48230B9F181811D
:100AD000882389F12DC011961C9111978230F1F075
:100AE00081811817D9F412962D913C911397828128
:100AF00093818217930794F028173907BCF0149656
:100B00008D919D910D90BC91A02D248135814681C0
:100B10005781281739074A075B0718F4112341F05A
:100B20000AC082179307A407B50740F4112319F0F0
:100B300061E070E005C06FEF7FEF02C060E070E041
:100B4000CB011F910895DF93CF93CDB7DEB7A7E216
:100B5000B0E0E7E2F0E0808180648C93A7E2B0E04F
:100B6000E7E2F0E080818F778C93A6E2B0E0E6E2E6
:100B7000F0E08081887F8C93A6E2B0E0E6E2F0E0CE
:100B8000808187608C93A7E2B0E0E7E2F0E08081AB
:100B900080628C93A6E2B0E0E6E2F0E080818068BB
:100BA0008C93CF91DF910895DF93CF930F92CDB7C0
:100BB000DEB78983A7E2B0E0E7E2F0E08081807EE3
:100BC0008C93A7E2B0E0E7E2F0E090818981892B85
:100BD0008C93A6E2B0E0E6E2F0E0808180648C9342
:100BE000E6E2F0E0808182958F70882F90E081703E
:100BF00090700097A9F3A6E2B0E0E6E2F0E0808111
:100C000080618C93E5E2F0E080810F90CF91DF91DD
:100C10000895DF93CF93CDB7DEB72F970FB6F89433
:100C2000DEBF0FBECDBF8F8783E060E040E00E9453
:100C30001E0983E061E040E00E941E0982E06F85AA
:100C40000E94CE0883E062E041E00E941E0980E03D
:100C500090E0A0E0B0E48B879C87AD87BE876B8572
:100C60007C858D859E8520E030E04AE753E40E9434
:100C70001F02DC01CB018F839887A987BA876F8118
:100C8000788589859A8520E030E040E85FE30E941E
:100C9000790388232CF481E090E09E838D833FC00C
:100CA0006F81788589859A8520E03FEF4FE757E48B
:100CB0000E94190318164CF56B857C858D859E85E1
:100CC00020E030E040E251E40E941F02DC01CB0151
:100CD000BC01CD010E944900DC01CB019E838D83C4
:100CE0000FC089E190E09C838B838B819C8101976D
:100CF000F1F79C838B838D819E8101979E838D83E9
:100D00008D819E81009769F714C06F8178858985F0
:100D10009A850E944900DC01CB019E838D838D81E1
:100D20009E819A83898389819A810197F1F79A83B9
:100D3000898383E062E040E00E941E092F960FB68F
:100D4000F894DEBF0FBECDBFCF91DF910895DF9342
:100D5000CF93CDB7DEB72E970FB6F894DEBF0FBE98
:100D6000CDBF80E090E0A0E2B2E48B879C87AD87A6
:100D7000BE876B857C858D859E8520E030E04AE7C7
:100D800053E40E941F02DC01CB018F839887A9875F
:100D9000BA876F81788589859A8520E030E040E8C0
:100DA0005FE30E94790388232CF481E090E09E8326
:100DB0008D833FC06F81788589859A8520E03FEFDC
:100DC0004FE757E40E94190318164CF56B857C8594
:100DD0008D859E8520E030E040E251E40E941F02B4
:100DE000DC01CB01BC01CD010E944900DC01CB013B
:100DF0009E838D830FC089E190E09C838B838B81E0
:100E00009C810197F1F79C838B838D819E81019753
:100E10009E838D838D819E81009769F714C06F81B9
:100E2000788589859A850E944900DC01CB019E83E3
:100E30008D838D819E819A83898389819A8101978F
:100E4000F1F79A83898388E30E9409068CE00E9467
:100E5000090681E00E9409062E960FB6F894DEBFBF
:100E60000FBECDBFCF91DF910895DF93CF93CDB764
:100E7000DEB72F970FB6F894DEBF0FBECDBF8F87BA
:100E800083E060E041E00E941E0983E061E040E011
:100E90000E941E0982E06F850E94CE0883E062E016
:100EA00041E00E941E0980E090E0A0E0B0E48B8762
:100EB0009C87AD87BE876B857C858D859E8520E070
:100EC00030E04AE753E40E941F02DC01CB018F832C
:100ED0009887A987BA876F81788589859A8520E068
:100EE00030E040E85FE30E94790388232CF481E03E
:100EF00090E09E838D833FC06F81788589859A8538
:100F000020E03FEF4FE757E40E94190318164CF515
:100F10006B857C858D859E8520E030E040E251E444
:100F20000E941F02DC01CB01BC01CD010E944900DF
:100F3000DC01CB019E838D830FC089E190E09C830F
:100F40008B838B819C810197F1F79C838B838D81AF
:100F50009E8101979E838D838D819E81009769F785
:100F600014C06F81788589859A850E944900DC01CB
:100F7000CB019E838D838D819E819A838983898114
:100F80009A810197F1F79A83898383E062E040E0D8
:100F90000E941E092F960FB6F894DEBF0FBECDBF7C
:100FA000CF91DF910895DF93CF9300D00F92CDB70B
:100FB000DEB79B838A8319820EC08981282F30E097
:100FC0008A819B81FC01E20FF31F80810E9435071B
:100FD00089818F5F89838981282F30E08A819B8175
:100FE000FC01E20FF31F8081882339F70F900F90E7
:100FF0000F90CF91DF910895DF93CF9300D00F92A0
:10100000CDB7DEB78A836B838A81882319F48B81FD
:10101000898306C08A81813019F48B81805C898341
:10102000898180680E9409060F900F900F90CF91E0
:10103000DF910895DF93CF93CDB7DEB727970FB633
:10104000F894DEBF0FBECDBF6C837D838E839F83FC
:101050001A828C819D81AE81BF810097A105B10567
:10106000B9F58091FC000E9435074EC08C819D81AE
:10107000AE81BF812AE030E040E050E0BC01CD010C
:101080000E94AC29DC01CB018B838C819D81AE81D8
:10109000BF812AE030E040E050E0BC01CD010E9479
:1010A000AC29DA01C9018C839D83AE83BF838A8119
:1010B000282F30E08B81882F90E0FC01E450FF4F17
:1010C0008081F901E65DFE4F80838A818F5F8A838C
:1010D0008C819D81AE81BF810097A105B10531F65C
:1010E0008A81815089830DC08981992787FD9095D8
:1010F000FC01E65DFE4F80810E94350789818150A9
:1011000089838981882384F727960FB6F894DEBFF8
:101110000FBECDBFCF91DF910895DF93CF93CDB7B1
:10112000DEB727970FB6F894DEBF0FBECDBF9C8306
:101130008B836D834E832F831A828D81882F90E05D
:10114000880F991F880F991F880F991F8A838A819A
:1011500080640E94090619820EC08981282F30E020
:101160008B819C81FC01E20FF31F80810E94350777
:1011700089818F5F89838981883078F38E816F813F
:101180000E94FC078D810E94350727960FB6F894C0
:10119000DEBF0FBECDBFCF91DF910895DF93CF9318
:1011A00000D000D000D0CDB7DEB78A836B83198220
:1011B0008A81843028F081E0898329812E8334C09C
:1011C0008A81282F30E03D832C838C819D81813062
:1011D0009105D1F02C813D81223031052CF48C8198
:1011E0009D81009761F01EC02C813D812230310528
:1011F00081F08C819D818330910581F013C0EBE3F8
:10120000F0E08B8180830EC0E8E3F0E08B81808387
:1012100009C0E5E3F0E08B81808304C0E2E3F0E005
:101220008B81808399819E838E8126960FB6F89458
:10123000DEBF0FBECDBFCF91DF910895DF93CF9377
:10124000CDB7DEB729970FB6F894DEBF0FBECDBF7E
:101250008A836B834C8319828A81843028F081E0F1
:10126000898329812987F4C08B81883028F081E027
:10127000898339813987ECC08C81813009F06FC056
:101280008A81282F30E038872F838F81988581309D
:10129000910549F12F813885223031052CF48F8159
:1012A0009885009761F0D2C02F81388522303105B2
:1012B00071F18F81988583309105E9F1C7C0ABE367
:1012C000B0E0EBE3F0E08081482F8B81282F30E005
:1012D00081E090E0022E02C0880F991F0A94E2F785
:1012E000842B8C93B3C0A8E3B0E0E8E3F0E0808106
:1012F000482F8B81282F30E081E090E0022E02C041
:10130000880F991F0A94E2F7842B8C939FC0A5E362
:10131000B0E0E5E3F0E08081482F8B81282F30E0BA
:1013200081E090E0022E02C0880F991F0A94E2F734
:10133000842B8C938BC0A2E3B0E0E2E3F0E08081E9
:10134000482F8B81282F30E081E090E0022E02C0F0
:10135000880F991F0A94E2F7842B8C9377C08C81B5
:10136000882309F073C08A81282F30E03E832D83C3
:101370008D819E818130910559F12D813E812230F0
:1013800031052CF48D819E81009769F05FC02D811D
:101390003E812230310589F18D819E818330910516
:1013A00009F440C053C0ABE3B0E0EBE3F0E0808170
:1013B000482F8B81282F30E081E090E0022E02C080
:1013C000880F991F0A94E2F7809584238C933EC07E
:1013D000A8E3B0E0E8E3F0E08081482F8B81282F7C
:1013E00030E081E090E0022E02C0880F991F0A943D
:1013F000E2F7809584238C9329C0A5E3B0E0E5E370
:10140000F0E08081482F8B81282F30E081E090E050
:10141000022E02C0880F991F0A94E2F78095842358
:101420008C9314C0A2E3B0E0E2E3F0E08081482FA7
:101430008B81282F30E081E090E0022E02C0880FDF
:10144000991F0A94E2F7809584238C939981998758
:10145000898529960FB6F894DEBF0FBECDBFCF9118
:10146000DF910895DF93CF9300D000D000D0CDB7A7
:10147000DEB78A836B8319828A81843028F081E009
:10148000898329812E8334C08A81282F30E03D83CF
:101490002C838C819D8181309105D1F02C813D81FF
:1014A000223031052CF48C819D81009761F01EC0A3
:1014B0002C813D812230310581F08C819D818330EA
:1014C000910581F013C0EAE3F0E08B8180830EC0C8
:1014D000E7E3F0E08B81808309C0E4E3F0E08B81F7
:1014E000808304C0E1E3F0E08B81808399819E8357
:1014F0008E8126960FB6F894DEBF0FBECDBFCF917A
:10150000DF910895DF93CF93CDB7DEB729970FB65C
:10151000F894DEBF0FBECDBF8A836B834C831982E4
:101520008A81843028F081E0898329812987F4C069
:101530008B81883028F081E0898339813987ECC03C
:101540008C81813009F06FC08A81282F30E0388784
:101550002F838F8198858130910549F12F813885BE
:10156000223031052CF48F819885009761F0D2C02C
:101570002F8138852230310571F18F819885833034
:101580009105E9F1C7C0AAE3B0E0EAE3F0E08081A9
:10159000482F8B81282F30E081E090E0022E02C09E
:1015A000880F991F0A94E2F7842B8C93B3C0A7E3AA
:1015B000B0E0E7E3F0E08081482F8B81282F30E016
:1015C00081E090E0022E02C0880F991F0A94E2F792
:1015D000842B8C939FC0A4E3B0E0E4E3F0E080812F
:1015E000482F8B81282F30E081E090E0022E02C04E
:1015F000880F991F0A94E2F7842B8C938BC0A1E388
:10160000B0E0E1E3F0E08081482F8B81282F30E0CB
:1016100081E090E0022E02C0880F991F0A94E2F741
:10162000842B8C9377C08C81882309F073C08A81C6
:10163000282F30E03E832D838D819E81813091055E
:1016400059F12D813E81223031052CF48D819E810E
:10165000009769F05FC02D813E812230310589F10C
:101660008D819E818330910509F440C053C0AAE367
:10167000B0E0EAE3F0E08081482F8B81282F30E052
:1016800081E090E0022E02C0880F991F0A94E2F7D1
:10169000809584238C933EC0A7E3B0E0E7E3F0E0BD
:1016A0008081482F8B81282F30E081E090E0022E4E
:1016B00002C0880F991F0A94E2F7809584238C93C7
:1016C00029C0A4E3B0E0E4E3F0E08081482F8B81FF
:1016D000282F30E081E090E0022E02C0880F991F91
:1016E0000A94E2F7809584238C9314C0A1E3B0E0C0
:1016F000E1E3F0E08081482F8B81282F30E081E00A
:1017000090E0022E02C0880F991F0A94E2F780959C
:1017100084238C9399819987898529960FB6F894AB
:10172000DEBF0FBECDBFCF91DF910895DF93CF9382
:10173000CDB7DEB727970FB6F894DEBF0FBECDBF8B
:101740008A837C836B8319828A81843028F081E0CC
:10175000898329812F833CC08A81282F30E03E83F2
:101760002D838D819E8181309105E1F02D813E8117
:10177000223031052CF48D819E81009761F026C0C6
:101780002D813E8122303105A1F08D819E818330F3
:101790009105B1F01BC0E9E3F0E08081EB81FC81B1
:1017A000808314C0E6E3F0E08081EB81FC818083DC
:1017B0000DC0E3E3F0E08081EB81FC81808306C013
:1017C000E0E3F0E08081EB81FC81808399819F835D
:1017D0008F8127960FB6F894DEBF0FBECDBFCF9195
:1017E000DF910895DF93CF93CDB7DEB728970FB67B
:1017F000F894DEBF0FBECDBF8A836B835D834C83BD
:1018000019828A81843028F081E0898329812887A0
:101810007AC08B81883028F081E0898339813887CC
:1018200072C08A81482F50E05F834E838E819F81F2
:101830008130910559F12E813F812230310534F4F8
:101840004E815F814115510569F05BC08E819F819A
:101850008230910579F12E813F812330310509F4E1
:101860003DC04FC0E9E3F0E08081282F30E08B815C
:10187000882F90E0A90102C0559547958A95E2F717
:10188000CA018170EC81FD8180833BC0E6E3F0E01A
:101890008081282F30E08B81882F90E0A90102C041
:1018A000559547958A95E2F7CA018170EC81FD81D3
:1018B000808327C0E3E3F0E08081282F30E08B8134
:1018C000882F90E0A90102C0559547958A95E2F7C7
:1018D000CA018170EC81FD81808313C0E0E3F0E0F8
:1018E0008081282F30E08B81882F90E0A90102C0F1
:1018F000559547958A95E2F7CA018170EC81FD8183
:10190000808359815887888528960FB6F894DEBF62
:101910000FBECDBFCF91DF910895DF93CF9300D05D
:1019200000D0CDB7DEB79B838A836C8380EA89833E
:101930000E945D1689810E9478168A810E9478161D
:101940008C810E9478160E946D160F900F900F9058
:101950000F90CF91DF910895DF93CF9300D000D007
:101960000F92CDB7DEB79D838C8380EA8B838B810A
:101970008F5F8A830E945D168B810E9478168C810E
:101980000E9478160E945D168A810E9478160E9435
:101990008F1689830E946D1689810F900F900F908A
:1019A0000F900F90CF91DF910895DF93CF9300D0E8
:1019B00000D0CDB7DEB79B838A836C8380EA8983AE
:1019C0000E94B71289810E94D2128A810E94D2128B
:1019D0008C810E94D2120E94C7120F900F900F901C
:1019E0000F90CF91DF910895DF93CF9300D000D077
:1019F0000F92CDB7DEB79D838C8380EA8B838B817A
:101A00008F5F8A830E94B7128B810E94D2128C81D1
:101A10000E94D2120E94B7128A810E94D2120E94A2
:101A2000E91289830E94C71289810F900F900F904D
:101A30000F900F90CF91DF910895DF93CF93CDB7A3
:101A4000DEB729970FB6F894DEBF0FBECDBF8A83ED
:101A50006B8319828A81863009F05FC08B81282FC1
:101A600030E039872887888599858230910529F16A
:101A7000288539852330310534F48885998581306E
:101A8000910561F047C0288539852330310521F162
:101A9000888599858430910571F13CC0A5E5B0E059
:101AA000E5E5F0E080818E7F8C93A5E5B0E0E5E58B
:101AB000F0E080818E7F8C93BBC0A5E5B0E0E5E5CA
:101AC000F0E0808181608C93A5E5B0E0E5E5F0E091
:101AD00080818D7F8C93ACC0A5E5B0E0E5E5F0E0BA
:101AE00080818E7F8C93A5E5B0E0E5E5F0E0808114
:101AF00082608C939DC0A5E5B0E0E5E5F0E08081D3
:101B000081608C93A5E5B0E0E5E5F0E0808182603E
:101B10008C938EC081E089838BC08A81873009F0E5
:101B20005FC08B81282F30E03F832E838E819F8181
:101B30008230910529F12E813F812330310534F423
:101B40008E819F818130910561F047C02E813F8158
:101B50002330310521F18E819F818430910571F10F
:101B60003CC0A5E5B0E0E5E5F0E08081877F8C939F
:101B7000A5E5B0E0E5E5F0E080818B7F8C9358C06F
:101B8000A5E5B0E0E5E5F0E0808184608C93A5E513
:101B9000B0E0E5E5F0E08081877F8C9349C0A5E562
:101BA000B0E0E5E5F0E080818B7F8C93A5E5B0E0C7
:101BB000E5E5F0E0808188608C933AC0A5E5B0E06F
:101BC000E5E5F0E0808188608C93A5E5B0E0E5E58F
:101BD000F0E0808184608C932BC081E0898328C0F1
:101BE0008A81853019F58B81282F30E03D832C8345
:101BF0008C819D818330910531F02C813D81243091
:101C0000310549F010C0A4E5B0E0E4E5F0E08081E2
:101C10008F7B8C930DC0A4E5B0E0E4E5F0E080811B
:101C200080648C9305C081E0898302C081E0898350
:101C3000898129960FB6F894DEBF0FBECDBFCF9134
:101C4000DF910895DF93CF9300D000D0CDB7DEB7FA
:101C50008A8319828A81282F30E03C832B838B81F1
:101C60009C818630910559F02B813C8127303105CC
:101C700071F08B819C818530910589F018C0ABE5AE
:101C8000B0E0EBE5F0E0808180648C9312C0ABE5BE
:101C9000B0E0EBE5F0E0808180688C930AC0ABE5B2
:101CA000B0E0EBE5F0E0808180628C9302C081E0DF
:101CB000898389810F900F900F900F90CF91DF91C2
:101CC0000895DF93CF9300D000D0CDB7DEB78A83DD
:101CD00019828A81282F30E03C832B838B819C8161
:101CE0008630910559F02B813C812730310571F008
:101CF0008B819C818530910589F018C0ABE5B0E0FF
:101D0000EBE5F0E080818F7B8C9312C0ABE5B0E017
:101D1000EBE5F0E080818F778C930AC0ABE5B0E013
:101D2000EBE5F0E080818F7D8C9302C081E08983B8
:101D300089810F900F900F900F90CF91DF910895B0
:101D4000DF93CF93CDB7DEB7AFE5B0E0EFE5F0E0DE
:101D5000808180688C93CF91DF910895DF93CF933A
:101D6000CDB7DEB7AFE5B0E0EFE5F0E080818F778B
:101D70008C93CF91DF910895DF93CF93CDB7DEB7EA
:101D80002F970FB6F894DEBF0FBECDBF8F8782E0CE
:101D900061E00E94320A83E060E041E00E94820A32
:101DA00083E061E041E00E94820A83E062E041E07A
:101DB0000E94820A83E060E040E00E941E0983E006
:101DC00061E040E00E941E0982E06F850E94CE081B
:101DD00083E062E041E00E941E0980E090E0A0E024
:101DE000B0E48B879C87AD87BE876B857C858D85AE
:101DF0009E8520E030E04AE753E40E941F02DC01A8
:101E0000CB018F839887A987BA876F817885898569
:101E10009A8520E030E040E85FE30E947903882360
:101E20002CF481E090E09E838D833FC06F817885A4
:101E300089859A8520E03FEF4FE757E40E94190318
:101E400018164CF56B857C858D859E8520E030E0ED
:101E500040E251E40E941F02DC01CB01BC01CD0134
:101E60000E944900DC01CB019E838D830FC089E174
:101E700090E09C838B838B819C810197F1F79C83FD
:101E80008B838D819E8101979E838D838D819E8121
:101E9000009769F714C06F81788589859A850E94BB
:101EA0004900DC01CB019E838D838D819E819A83C5
:101EB000898389819A810197F1F79A83898383E0E5
:101EC00062E040E00E941E092F960FB6F894DEBF34
:101ED0000FBECDBFCF91DF910895DF93CF93CDB7E4
:101EE000DEB72E970FB6F894DEBF0FBECDBF80E0F1
:101EF00090E0A0E2B2E48B879C87AD87BE876B85BC
:101F00007C858D859E8520E030E04AE753E40E9481
:101F10001F02DC01CB018F839887A987BA876F8165
:101F2000788589859A8520E030E040E85FE30E946B
:101F3000790388232CF481E090E09E838D833FC059
:101F40006F81788589859A8520E03FEF4FE757E4D8
:101F50000E94190318164CF56B857C858D859E852E
:101F600020E030E040E251E40E941F02DC01CB019E
:101F7000BC01CD010E944900DC01CB019E838D8311
:101F80000FC089E190E09C838B838B819C810197BA
:101F9000F1F79C838B838D819E8101979E838D8336
:101FA0008D819E81009769F714C06F81788589853E
:101FB0009A850E944900DC01CB019E838D838D812F
:101FC0009E819A83898389819A810197F1F79A8307
:101FD000898388E30E94BC0E8CE00E94BC0E81E0E5
:101FE0000E94BC0E2E960FB6F894DEBF0FBECDBF7A
:101FF000CF91DF910895DF93CF93CDB7DEB72F97C1
:102000000FB6F894DEBF0FBECDBF8F8783E060E0D0
:1020100041E00E941E0983E061E040E00E941E0949
:1020200082E06F850E94CE0883E062E041E00E947A
:102030001E0980E090E0A0E0B0E48B879C87AD872C
:10204000BE876B857C858D859E8520E030E04AE7E4
:1020500053E40E941F02DC01CB018F839887A9877C
:10206000BA876F81788589859A8520E030E040E8DD
:102070005FE30E94790388232CF481E090E09E8343
:102080008D833FC06F81788589859A8520E03FEFF9
:102090004FE757E40E94190318164CF56B857C85B1
:1020A0008D859E8520E030E040E251E40E941F02D1
:1020B000DC01CB01BC01CD010E944900DC01CB0158
:1020C0009E838D830FC089E190E09C838B838B81FD
:1020D0009C810197F1F79C838B838D819E81019771
:1020E0009E838D838D819E81009769F714C06F81D7
:1020F000788589859A850E944900DC01CB019E8301
:102100008D838D819E819A83898389819A810197AC
:10211000F1F79A83898383E062E040E00E941E0920
:102120002F960FB6F894DEBF0FBECDBFCF91DF91D3
:102130000895DF93CF9300D00F92CDB7DEB79B8386
:102140008A8319820EC08981282F30E08A819B8181
:10215000FC01E20FF31F80810E94FB0F89818F5FDA
:1021600089838981282F30E08A819B81FC01E20FDD
:10217000F31F8081882339F70F900F900F90CF9134
:10218000DF910895DF93CF9300D00F92CDB7DEB7E4
:102190008A836B838A81882319F48B81898306C0A3
:1021A0008A81813019F48B81805C89838981806880
:1021B0000E94BC0E0F900F900F90CF91DF91089569
:1021C000DF93CF93CDB7DEB727970FB6F894DEBF76
:1021D0000FBECDBF6C837D838E839F831A828C81DB
:1021E0009D81AE81BF810097A105B105B9F58091B0
:1021F00006010E94FB0F4EC08C819D81AE81BF8184
:102200002AE030E040E050E0BC01CD010E94AC2962
:10221000DC01CB018B838C819D81AE81BF812AE063
:1022200030E040E050E0BC01CD010E94AC29DA0171
:10223000C9018C839D83AE83BF838A81282F30E0C0
:102240008B81882F90E0FC01EA5FFE4F8081F901CD
:10225000EC5CFE4F80838A818F5F8A838C819D81B5
:10226000AE81BF810097A105B10531F68A81815009
:1022700089830DC08981992787FD9095FC01EC5CCD
:10228000FE4F80810E94FB0F898181508983898163
:10229000882384F727960FB6F894DEBF0FBECDBF14
:1022A000CF91DF910895DF93CF93CDB7DEB781E073
:1022B0000E94BC0ECF91DF910895DF93CF93CDB7ED
:1022C000DEB781E064E040E00E94820A81E064E0E1
:1022D00041E00E941E0981E065E041E00E94820A1F
:1022E00081E066E040E00E94820A81E067E041E030
:1022F0000E94820AADE2B0E0EDE2F0E08081806110
:102300008C93ADE2B0E0EDE2F0E0808181608C93EF
:10231000ADE2B0E0EDE2F0E080818D7F8C93AEE243
:10232000B0E0EEE2F0E080818E7F8C93ADE2B0E031
:10233000EDE2F0E0808180648C93CF91DF9108958D
:10234000DF93CF93CDB7DEB781E064E040E00E9439
:10235000820A81E065E040E00E94820A81E066E056
:1023600041E00E94820A81E067E040E00E94820A28
:1023700080E060E041E00E94820AADE2B0E0EDE280
:10238000F0E080818F7E8C93ADE2B0E0EDE2F0E092
:10239000808180648C93CF91DF910895DF93CF93F8
:1023A0000F92CDB7DEB78983EFE2F0E089818083B9
:1023B000EEE2F0E080818823DCF7EFE2F0E080815C
:1023C0000F90CF91DF910895DF93CF93CDB7DEB714
:1023D000A3E5B0E0E3E5F0E08081877F8C93A3E59F
:1023E000B0E0E3E5F0E080818F7B8C93A3E5B0E083
:1023F000E3E5F0E080818E7F8C93A3E5B0E0E3E538
:10240000F0E0808182608C93A3E5B0E0E3E5F0E04A
:1024100080818B7F8C93A9E5B0E0E9E5F0E08081D5
:1024200081608C93CF91DF910895DF93CF93CDB7E7
:10243000DEB7A3E5B0E0E3E5F0E0808188608C934F
:10244000A3E5B0E0E3E5F0E080818F7B8C93A3E52A
:10245000B0E0E3E5F0E0808181608C93A3E5B0E03B
:10246000E3E5F0E0808182608C93A3E5B0E0E3E5F2
:10247000F0E080818B7F8C93A9E5B0E0E9E5F0E0A6
:10248000808182608C93CF91DF910895DF93CF9309
:10249000CDB7DEB7A3E5B0E0E3E5F0E0808188608A
:1024A0008C93A3E5B0E0E3E5F0E0808180648C9359
:1024B000A3E5B0E0E3E5F0E0808180628C93A3E5E2
:1024C000B0E0E3E5F0E080818F7E8C93A3E5B0E09F
:1024D000E3E5F0E080818E7F8C93A3E5B0E0E3E557
:1024E000F0E0808182608C93A3E5B0E0E3E5F0E06A
:1024F00080818B7F8C93CF91DF910895DF93CF9371
:102500000F92CDB7DEB78983ECE5F0E08981808357
:102510000F90CF91DF910895DF93CF930F92CDB7B6
:10252000DEB78983E2E5F0E0898180830F90CF9167
:10253000DF910895DF93CF93CDB7DEB7E0E2F0E00F
:102540008FEF8083A1E2B0E0E1E2F0E080818E7F56
:102550008C93A1E2B0E0E1E2F0E080818D7F8C938A
:10256000E6E5F0E084E08083CF91DF910895DF938A
:10257000CF93CDB7DEB7E6E5F0E084EA8083E6E509
:10258000F0E080818823DCF7CF91DF910895DF931D
:10259000CF93CDB7DEB7E6E5F0E084E98083CF9155
:1025A000DF910895DF93CF930F92CDB7DEB7898384
:1025B000E3E2F0E089818083E6E5F0E084E880836F
:1025C000E6E5F0E080818823DCF70F90CF91DF9182
:1025D0000895DF93CF93CDB7DEB7E6E5F0E084E86A
:1025E0008083E6E5F0E080818823DCF7E3E2F0E039
:1025F0008081CF91DF910895DF93CF93CDB7DEB780
:1026000027970FB6F894DEBF0FBECDBF9D838C8396
:102610006E834F838AE190E00E94D4159A83898368
:1026200089819A81009709F46FC080913E01909151
:102630003F01009741F489819A8190933F018093F3
:102640003E010E9463158E81823010F081E08E83FE
:10265000E981FA81118E108EE981FA818E81868B53
:10266000E981FA818F81878BE981FA818C819D8153
:102670009183808389819A8102960E947217898151
:102680009A810C960E947217E981FA8189819A8158
:1026900091878087E981FA8189819A81938B828BE6
:1026A0008E81282F30E085E090E0821B930BE9813A
:1026B000FA8195878487E981FA8196898091400122
:1026C000891728F4E981FA81868980934001E9819C
:1026D000FA818689282F30E0C901880F991F880F59
:1026E000991F880F991F820F931FAC01495B5E4FA2
:1026F00089819A819C012E5F3F4FCA01B9010E94D6
:10270000821781E08B8302C08FEF8B838B812796AA
:102710000FB6F894DEBF0FBECDBFCF91DF91089505
:10272000DF93CF9300D000D000D0CDB7DEB79C832D
:102730008B837E836D8320914101309142018B8197
:102740009C81820F931F9A83898380913E0190918F
:102750003F0102960E943A18E0913E01F0913F013C
:1027600089819A8193838283209141013091420132
:1027700089819A818217930770F480916D019091FD
:102780006E0120913E0130913F012E5F3F4FB90114
:102790000E94CE170DC080916B0190916C01209129
:1027A0003E0130913F012E5F3F4FB9010E94CE178D
:1027B0008D819E81009761F080913E0190913F0153
:1027C0009C01245F3F4F8D819E81B9010E94CE17ED
:1027D00026960FB6F894DEBF0FBECDBFCF91DF9126
:1027E0000895DF93CF9300D0CDB7DEB73AC0F89409
:1027F000E0917401F0917501868197819A838983B4
:1028000089819A810C960E943A18789489819A81DC
:1028100002960E943A18E981FA81968980914001D6
:10282000891728F4E981FA81868980934001E9813A
:10283000FA818689282F30E0C901880F991F880FF7
:10284000991F880F991F820F931FAC01495B5E4F40
:1028500089819A819C012E5F3F4FCA01B9010E9474
:10286000821780916F01882309F0C1CF0F900F90DC
:10287000CF91DF910895DF93CF9300D000D0CDB7F3
:10288000DEB70E9493252091430130914401821BC1
:10289000930B909346018093450185C0809141013F
:1028A0009091420101969093420180934101809161
:1028B000450190914601019790934601809345010F
:1028C0008091410190914201009709F064C080918C
:1028D0006B0190916C019A83898380916D01909135
:1028E0006E0190936C0180936B0189819A81909322
:1028F0006E0180936D014FC0E0916B01F0916C010E
:102900000580F681E02D868197819C838B83EB8106
:10291000FC81228133818091410190914201821793
:10292000930708F440C0F8948B819C8102960E9422
:102930003A18EB81FC8184899589009729F08B8175
:102940009C810C960E943A187894EB81FC819689C0
:1029500080914001891728F4EB81FC81868980935E
:102960004001EB81FC818689282F30E0C901880F66
:10297000991F880F991F880F991F820F931FAC0111
:10298000495B5E4F8B819C819C012E5F3F4FCA014A
:10299000B9010E948217E0916B01F0916C01808176
:1029A000882309F0A9CF80914501909146010097B5
:1029B00009F074CF809141019091420190934401BC
:1029C000809343010F900F900F900F90CF91DF9164
:1029D0000895DF93CF9300D0CDB7DEB70E94F113F7
:1029E0000E943B140AC080914001882309F466C00C
:1029F0008091400181508093400180914001282FB7
:102A000030E0C901880F991F880F991F880F991FFF
:102A1000820F931FFC01E95BFE4F8081882319F32D
:102A200080914001282F30E0C901880F991F880F3D
:102A3000991F880F991F820F931F895B9E4F9A835E
:102A40008983E981FA810180F281E02D828193817D
:102A5000E981FA8192838183E981FA81218132813E
:102A600089819A8103962817390759F4E981FA81F7
:102A70000180F281E02D82819381E981FA81928344
:102A80008183E981FA810180F281E02D868197813D
:102A900090933F0180933E01E0913E01F0913F0110
:102AA0004081518180913E0190913F01E0913E0132
:102AB000F0913F012789622FFA0109950F900F903D
:102AC000CF91DF910895DF93CF930F92CDB7DEB70B
:102AD000198213C08981282F30E0C901880F991FFE
:102AE000880F991F880F991F820F931F895B9E4F34
:102AF0000E94481789818F5F89838981823050F3D2
:102B000089E591E00E94481782E691E00E9448170B
:102B10008FE691E00E94481789E591E090936C015F
:102B200080936B0182E691E090936E0180936D013A
:102B30000F90CF91DF910895DF93CF9300D000D015
:102B40000F92CDB7DEB79D838C83EC81FD8105802C
:102B5000F681E02D868197819B838A838A819B8180
:102B60000C960E943A188A819B819C01245F3F4FFA
:102B70008FE691E0B9010E948217EA81FB81968974
:102B8000E0913E01F0913F018689981718F081E0AD
:102B9000898301C0198289810F900F900F900F9047
:102BA0000F90CF91DF910895DF93CF9300D000D0A5
:102BB000CDB7DEB79C838B831A8219820E94FD24D5
:102BC00080917801909179012B813C81820F931F34
:102BD00025E08C3D920718F520917801309179011C
:102BE0008B819C81280F391F809178019091790108
:102BF00082179307A0F4809178019091790186580B
:102C00009E4F9A83898320917801309179018B813D
:102C10009C81820F931F90937901809378010E9489
:102C2000092589819A810F900F900F900F90CF9175
:102C3000DF910895DF93CF9300D0CDB7DEB79A83AD
:102C400089830F900F90CF91DF910895DF93CF93F9
:102C5000CDB7DEB71092790110927801CF91DF9154
:102C60000895DF93CF93CDB7DEB7209178013091EF
:102C700079018CED95E0821B930BCF91DF91089544
:102C8000DF93CF93CDB7DEB7E0E2F0E08FEF808344
:102C9000A1E2B0E0E1E2F0E080818E7F8C93A1E2DE
:102CA000B0E0E1E2F0E080818D7F8C93E6E5F0E03A
:102CB00084E08083CF91DF910895DF93CF93CDB7E8
:102CC000DEB7E6E5F0E084EA8083E6E5F0E08081C7
:102CD0008823DCF7CF91DF910895DF93CF93CDB7B1
:102CE000DEB7E6E5F0E084E98083CF91DF910895D7
:102CF000DF93CF930F92CDB7DEB78983E3E2F0E0A5
:102D000089818083E6E5F0E084E88083E6E5F0E011
:102D100080818823DCF70F90CF91DF910895DF93B6
:102D2000CF93CDB7DEB7E6E5F0E084E88083E6E553
:102D3000F0E080818823DCF7E3E2F0E08081CF914E
:102D4000DF910895DF93CF93CDB7DEB780E065E0E4
:102D500041E00E94820A80E066E041E00E94820A2F
:102D600080E067E041E00E94820A80E061E040E0AC
:102D70000E94820A80E062E040E00E94820A80E0D5
:102D800063E040E00E94820A80E064E040E00E944C
:102D9000820A80E06FEF0E94CE08CF91DF91089504
:102DA000DF93CF9300D000D00F92CDB7DEB78FEF77
:102DB0008B831A825EC08A81882F90E0FC01EC5ED2
:102DC000FE4F908180E0692F40E00E941E09198229
:102DD0003DC08981882F90E0FC01E05FFE4F90812B
:102DE0009E012C5F3F4F80E0692FA9010E94F20BEA
:102DF0008C81882341F58981282F30E08A81482FF2
:102E000050E0C901880F991F820F931F840F951FEF
:102E1000FC01E95EFE4F80818B830FC08981882F82
:102E200090E0FC01E05FFE4F90819E012C5F3F4FE0
:102E300080E0692FA9010E94F20B8C81882371F335
:102E40008B818D831CC089818F5F898389818430C8
:102E500008F4BFCF8A81882F90E0FC01EC5EFE4F22
:102E6000908180E0692F41E00E941E098A818F5F76
:102E70008A838A81833008F49ECF8B818D838D81F4
:102E80000F900F900F900F900F90CF91DF910895BA
:102E9000DF93CF9300D0CDB7DEB79A838983898142
:102EA0009A810396E981FA8192838183E981FA818B
:102EB0008FEF9FEF9483838389819A810396E981C1
:102EC000FA819683858389819A810396E981FA81C3
:102ED00090878783E981FA8110820F900F90CF91BC
:102EE000DF910895DF93CF9300D0CDB7DEB79A83FB
:102EF0008983E981FA81118610860F900F90CF9116
:102F0000DF910895DF93CF9300D000D000D0CDB7EC
:102F1000DEB79C838B837E836D83EB81FC81818113
:102F200092819A838983E981FA8182819381ED81FB
:102F3000FE8193838283EB81FC8181819281ED818B
:102F4000FE8195838483E981FA810280F381E02DFB
:102F50008D819E81958384838D819E81E981FA8113
:102F6000938382838D819E81EB81FC819283818317
:102F7000ED81FE818B819C8191878087EB81FC8133
:102F800080818F5FEB81FC81808326960FB6F89459
:102F9000DEBF0FBECDBFCF91DF910895DF93CF93FA
:102FA000CDB7DEB728970FB6F894DEBF0FBECDBF02
:102FB0009E838D8378876F83EF81F88580819181EF
:102FC0009A83898389819A812FEF8F3F920739F401
:102FD000ED81FE81878190859C838B8318C08D81D4
:102FE0009E8103969C838B8306C0EB81FC8182814A
:102FF00093819C838B83EB81FC810280F381E02DA4
:103000002081318189819A818217930770F7EB8142
:10301000FC8182819381EF81F88593838283EF81A4
:10302000F8850280F381E02D8F81988595838483D4
:10303000EF81F8858B819C81958384838F8198852E
:10304000EB81FC8193838283EF81F8858D819E8162
:1030500091878087ED81FE8180818F5FED81FE8188
:10306000808328960FB6F894DEBF0FBECDBFCF91F8
:10307000DF910895DF93CF9300D000D0CDB7DEB7B6
:103080009C838B83EB81FC81A281B381EB81FC81EA
:103090008481958115969C938E931497EB81FC8186
:1030A000A481B581EB81FC818281938113969C93ED
:1030B0008E931297EB81FC81808591859A83898319
:1030C000E981FA81218132818B819C81281739071E
:1030D00041F4EB81FC8184819581E981FA819283BD
:1030E0008183EB81FC8111861086E981FA818081E0
:1030F0008150E981FA8180830F900F900F900F909B
:10310000CF91DF910895DF93CF93CDB7DEB7AE9720
:103110000FB6F894DEBF0FBECDBF0E946D0F0E94A8
:10312000A2160E945D1180E690E00E94991081E055
:1031300060E00E94C21086E690E00E94991080E054
:1031400090E5A3E4B7E48FA398A7A9A7BAA76FA1B6
:1031500078A589A59AA520E030E04AE753E40E94CB
:103160001F02DC01CB018BA39CA3ADA3BEA36BA16B
:103170007CA18DA19EA120E030E040E85FE30E94A9
:10318000790388232CF481E090E09AA389A33FC0BF
:103190006BA17CA18DA19EA120E03FEF4FE757E4FA
:1031A0000E94190318164CF56FA178A589A59AA558
:1031B00020E030E040E251E40E941F02DC01CB013C
:1031C000BC01CD010E944900DC01CB019AA389A377
:1031D0000FC089E190E098A38F8F8F8D98A1019700
:1031E000F1F798A38F8F89A19AA101979AA389A338
:1031F00089A19AA1009769F714C06BA17CA18DA148
:103200009EA10E944900DC01CB019AA389A389A158
:103210009AA19E8F8D8F8D8D9E8D0197F1F79E8F38
:103220008D8F0E9453111EA683E08DA71CA683E0FC
:103230008DA727C187E790E00E94991081E060E0A8
:103240000E94C2101EA618C00E94D0168BA78BA584
:103250008F3FD1F38EA5882F90E0FC01ED5DFE4FEE
:1032600090818BA5981711F081E08CA78AE20E94CB
:10327000FB0F8EA58F5F8EA78EA5843028F38CA5BB
:10328000813009F07EC081E060E00E94C21087E8D2
:1032900090E00E94991080E090E0AAEFB4E4898F5A
:1032A0009A8FAB8FBC8F698D7A8D8B8D9C8D20E032
:1032B00030E04AE753E40E941F02DC01CB018D8B12
:1032C0009E8BAF8BB88F6D897E898F89988D20E01A
:1032D00030E040E85FE30E94790388232CF481E02A
:1032E00090E09C8B8B8B3FC06D897E898F89988DF8
:1032F00020E03FEF4FE757E40E94190318164CF502
:10330000698D7A8D8B8D9C8D20E030E040E251E418
:103310000E941F02DC01CB01BC01CD010E944900CB
:10332000DC01CB019C8B8B8B0FC089E190E09A8BE9
:10333000898B89899A890197F1F79A8B898B8B8977
:103340009C8901979C8B8B8B8B899C89009769F753
:1033500014C06D897E898F89988D0E944900DC0197
:10336000CB019C8B8B8B8B899C89988B8F878F85CE
:1033700098890197F1F7988B8F870E9453111CA6AB
:103380007DC08CA5882309F079C00E94531182E981
:1033900090E00E94991080E090E0AAEFB4E48B875F
:1033A0009C87AD87BE876B857C858D859E8520E05B
:1033B00030E04AE753E40E941F02DC01CB018F8317
:1033C0009887A987BA876F81788589859A8520E053
:1033D00030E040E85FE30E94790388232CF481E029
:1033E00090E09E838D833FC06F81788589859A8523
:1033F00020E03FEF4FE757E40E94190318164CF501
:103400006B857C858D859E8520E030E040E251E42F
:103410000E941F02DC01CB01BC01CD010E944900CA
:10342000DC01CB019E838D830FC089E190E09C83FA
:103430008B838B819C810197F1F79C838B838D819A
:103440009E8101979E838D838D819E81009769F770
:103450001CC06F81788589859A850E944900DC01AE
:10346000CB019E838D838D819E819A8389838981FF
:103470009A810197F1F79A83898307C08DA58150BE
:103480008DA78DA5882309F0D5CE8DA5882349F475
:1034900080E060E00E94C21083EA90E00E949910F0
:1034A00002C00E94051B80E090E0AE960FB6F89433
:1034B000DEBF0FBECDBFCF91DF910895DF93CF93D5
:1034C00000D00F92CDB7DEB78B831A8219828B8121
:1034D000813359F483E063E041E00E94820A83E093
:1034E00063E041E00E941E090DC08B81823351F4DC
:1034F00083E064E041E00E94820A83E064E041E00E
:103500000E941E090E94531185EB90E00E949910C1
:1035100080E067E00E94C2108EEB90E00E9499105C
:1035200081E060E00E94C21084EC90E00E9499105B
:1035300081E067E00E94C2108AEC90E00E9499103E
:103540000E94D0168A838A818F3FD1F38A810E949C
:103550009F228A818133C1F40E94531181ED90E052
:103560000E94991080E067E00E94C21087ED90E011
:103570000E9499100E94D0168A838A818F3FD1F3CE
:103580008A810E949F223BC08A818233C1F40E94BB
:10359000531181ED90E00E94991080E067E00E9455
:1035A000C21087ED90E00E9499100E94D0168A8385
:1035B0008A818F3FD1F38A810E949F2220C08A8115
:1035C0008333C1F40E94531181ED90E00E94991061
:1035D00080E067E00E94C21087ED90E00E949910A1
:1035E0000E94D0168A838A818F3FD1F38A810E94FC
:1035F0009F2205C08A81843311F40E9453110F90D9
:103600000F900F90CF91DF910895DF93CF9300D06B
:10361000CDB7DEB71A8219820E9453118DED90E06A
:103620000E94991081E060E00E94C21086EE90E056
:103630000E9499100E94D0168A838A818F3FD1F30D
:103640008A81882311F081E089838981813049F45E
:103650008A810E949F228A810E94FB0F8A810E9498
:103660005E1A0F900F90CF91DF910895DF93CF9363
:10367000CDB7DEB728970FB6F894DEBF0FBECDBF2B
:103680009C838B837E836D8358874F83EB81FC8182
:1036900081E180838B819C8101979C838B83EB816B
:1036A000FC8182E280838B819C8101979C838B8348
:1036B000EB81FC8183E380838B819C8101979C83D8
:1036C0008B838D819E819A8389838981EB81FC81A3
:1036D00080838B819C8101979C838B8389819A81D4
:1036E000892F99279A8389838981EB81FC81808343
:1036F0008B819C8101979C838B83EB81FC81108261
:103700008B819C8101979C838B83EB81FC8180E87A
:1037100080838B819C8101979C838B83EB81FC81CF
:1037200010828B819C8101979C838B83EB81FC8130
:1037300082E080838B819C8101979C838B83EB81CA
:10374000FC8183E080838B819C8101979C838B83A8
:10375000EB81FC8184E080838B819C8101979C8339
:103760008B83EB81FC8185E080838B819C81019739
:103770009C838B83EB81FC8186E080838B819C81A1
:1037800001979C838B83EB81FC8187E080838B8115
:103790009C8101979C838B83EB81FC8188E08083F3
:1037A0008B819C8101979C838B83EB81FC8189E0D9
:1037B00080838B819C8101979C838B83EB81FC812F
:1037C00080E180838B819C8101979C838B83EB813B
:1037D000FC8181E180838B819C8101979C838B8319
:1037E000EB81FC8182E180838B819C8101979C83AA
:1037F0008B83EB81FC8183E180838B819C810197AA
:103800009C838B83EB81FC8184E180838B819C8111
:1038100001979C838B83EB81FC8185E180838B8185
:103820009C8101979C838B83EB81FC8186E1808363
:103830008B819C8101979C838B83EB81FC8187E149
:1038400080838B819C8101979C838B83EB81FC819E
:1038500088E180838B819C8101979C838B83EB81A2
:10386000FC8189E180838B819C8101979C838B8380
:10387000EB81FC8180E280838B819C8101979C831A
:103880008B83EB81FC8181E280838B819C8101971A
:103890009C838B83EB81FC8182E280838B819C8182
:1038A00001979C838B83EB81FC8183E280838B81F6
:1038B0009C8101979C838B838F8198859A838983D0
:1038C0008981EB81FC8180838B819C8101979C8322
:1038D0008B8389819A81892F99279A83898389810A
:1038E000EB81FC8180838B819C8101979C838B83FE
:1038F000EB81FC8186E280838B819C8101979C8394
:103900008B83EB81FC8187E280838B819C81019793
:103910009C838B83EB81FC8188E280838B819C81FB
:1039200001979C838B83EB81FC8189E280838B816F
:103930009C8101979C838B83EB81FC8180E3808356
:103940008B819C8101979C838B83EB81FC8181E33C
:1039500080838B819C8101979C838B838B819C814D
:1039600028960FB6F894DEBF0FBECDBFCF91DF9182
:103970000895DF93CF93CDB7DEB70E94A91DA09124
:103980005607B0915707CD91CDBFDD91DEBFFF91B6
:10399000EF91DF91CF91BF91AF919F918F917F91E7
:1039A0006F915F914F913F912F911F910F91FF90D8
:1039B000EF90DF90CF90BF90AF909F908F907F90CF
:1039C0006F905F904F903F902F901F900F900FBE81
:1039D0000F90089581E0CF91DF910895DF93CF9309
:1039E000CDB7DEB7CF91DF9108950F920FB6F8945F
:1039F0000F921F9211242F923F924F925F926F92DB
:103A00007F928F929F92AF92BF92CF92DF92EF926E
:103A1000FF920F931F932F933F934F935F936F9357
:103A20007F938F939F93AF93BF93CF93DF93EF9346
:103A3000FF93A0915607B09157070DB60D920EB6A1
:103A40000D920E949D26A0915607B0915707CD91E7
:103A5000CDBFDD91DEBFFF91EF91DF91CF91BF919F
:103A6000AF919F918F917F916F915F914F913F9116
:103A70002F911F910F91FF90EF90DF90CF90BF900B
:103A8000AF909F908F907F906F905F904F903F90FE
:103A90002F901F900F900FBE0F9008950F920FB6AA
:103AA000F8940F921F9211242F923F924F925F929F
:103AB0006F927F928F929F92AF92BF92CF92DF923E
:103AC000EF92FF920F931F932F933F934F935F9328
:103AD0006F937F938F939F93AF93BF93CF93DF9316
:103AE000EF93FF93A0915607B09157070DB60D9233
:103AF0000EB60D920E94C8250E949D26A0915607E1
:103B0000B0915707CD91CDBFDD91DEBFFF91EF9111
:103B1000DF91CF91BF91AF919F918F917F916F91E5
:103B20005F914F913F912F911F910F91FF90EF90D7
:103B3000DF90CF90BF90AF909F908F907F906F90CD
:103B40005F904F903F902F901F900F900FBE0F905F
:103B50000895DF93CF9300D000D000D0CDB7DEB76B
:103B600080E49FE1A0E0B0E08B839C83AD83BE83C3
:103B70008B819C81AD81BE81689415F8B695A7951F
:103B8000979587951694D1F78B839C83AD83BE83DD
:103B90008B819C81AD81BE810197A109B1098B8385
:103BA0009C83AD83BE838B8189838B819C81AD8116
:103BB000BE81892F9A2FAB2FBB278B839C83AD832C
:103BC000BE838B818A83EBE4F0E08A818083EAE420
:103BD000F0E0898180838BE08983EEE4F0E08981E5
:103BE0008083E9E5F0E08081898389818061898330
:103BF000E9E5F0E08981808326960FB6F894DEBF70
:103C00000FBECDBFCF91DF9108950E944E1D189534
:103C1000DF93CF93CDB7DEB728970FB6F894DEBF0A
:103C20000FBECDBF8F8368871A8219828F81882348
:103C300009F48CC08FE190E00E94D4159E838D839F
:103C40008D819E81009709F481C08F81282F30E0FB
:103C50008885882F90E0AC01249FC001259F900D9E
:103C6000349F900D112401969C838B838B819C81C2
:103C70000E94D415ED81FE8191838083ED81FE81C8
:103C800080819181009709F45DC0ED81FE814081C2
:103C900051818F81282F30E08885882F90E0BC01EA
:103CA000269FC001279F900D369F900D1124840FF1
:103CB000951FED81FE8193838283ED81FE81128EBB
:103CC000ED81FE8180819181ED81FE8195838483E8
:103CD000ED81FE81408151818F81882F90E09C0190
:103CE000215030408885882F90E0BC01269FC0017C
:103CF000279F900D369F900D1124840F951FED8105
:103D0000FE8197838683ED81FE818F81838FED8194
:103D1000FE818885848FED81FE818FEF858FED8117
:103D2000FE818FEF868F8D819E8108960E944817B5
:103D30008D819E8141960E9448178D819E819A8334
:103D4000898304C08D819E810E941A1689819A817F
:103D500028960FB6F894DEBF0FBECDBFCF91DF918E
:103D60000895DF93CF93CDB7DEB72C970FB6F894B5
:103D7000DEBF0FBECDBF9E838D8378876F835A874A
:103D800049872B8719820FB6F8940F92ED81FE8137
:103D9000928DED81FE81838D9817D8F48D819E815F
:103DA0002F813885B9014B850E94EC20ED81FE8181
:103DB0008189882349F08D819E8141960E9439270F
:103DC000813011F40E94F51C0F900FBE81E08C87AA
:103DD0005CC089859A85009721F40F900FBE1C86E0
:103DE00054C08981882331F4CE0102960E94A12714
:103DF00081E089830F900FBE0E94FD240FB6F894D6
:103E00000F92ED81FE81858D8F3F19F4ED81FE814A
:103E1000158EED81FE81868D8F3F19F4ED81FE8137
:103E2000168E0F900FBECE0102969E01275F3F4F68
:103E3000B9010E94BA27882309F58D819E810E94CD
:103E400050228823A1F08D819E81089629853A858C
:103E5000B9010E9403278D819E810E94C9210E9481
:103E60000925882309F08FCF0E94F51C8CCF8D8106
:103E70009E810E94C9210E94092585CF8D819E8146
:103E80000E94C9210E9409251C868C852C960FB69C
:103E9000F894DEBF0FBECDBFCF91DF910895DF93C1
:103EA000CF93CDB7DEB729970FB6F894DEBF0FBE1C
:103EB000CDBF9C838B837E836D8358874F832987F7
:103EC0001982EB81FC81928DEB81FC81838D9817A7
:103ED00040F58B819C812D813E81B90149850E94ED
:103EE000EC20EB81FC81868D8F3F89F4EB81FC8196
:103EF0008189882399F08B819C8141960E94392782
:103F0000882361F0EF81F88581E0808307C0EB8131
:103F1000FC81868D8F5FEB81FC81868F81E08A83B7
:103F200001C01A828A8129960FB6F894DEBF0FBEAF
:103F3000CDBFCF91DF910895DF93CF93CDB7DEB79B
:103F40002E970FB6F894DEBF0FBECDBF98878F8334
:103F50007A8769875C874B872D871B820FB6F89419
:103F60000F92EF81F885828D882309F43FC0EF819D
:103F7000F885868197819A8389838F8198852985A1
:103F80003A85B9010E9481218D858823B1F4EF81A2
:103F9000F885828D8150EF81F885828FEF81F885D9
:103FA00080858823F1F08F81988508960E943927B3
:103FB0008130B9F40E94F51C14C0EF81F885898125
:103FC0009A8197838683EF81F8858189882349F0D8
:103FD0008F81988541960E943927882311F00E948D
:103FE000F51C0F900FBE81E08E875CC08B859C8591
:103FF000009721F40F900FBE1E8654C08B8188233A
:1040000031F4CE0104960E94A12781E08B830F90AA
:104010000FBE0E94FD240FB6F8940F92EF81F88531
:10402000858D8F3F19F4EF81F885158EEF81F88526
:10403000868D8F3F19F4EF81F885168E0F900FBE95
:10404000CE0104969E01255F3F4FB9010E94BA2719
:10405000882309F58F8198850E941D228823A1F06D
:104060008F81988541962B853C85B9010E94032755
:104070008F8198850E94C9210E940925882309F013
:104080006DCF0E94F51C6ACF8F8198850E94C9214F
:104090000E94092563CF8F8198850E94C9210E94C3
:1040A00009251E868E852E960FB6F894DEBF0FBEAC
:1040B000CDBFCF91DF910895DF93CF93CDB7DEB71A
:1040C00028970FB6F894DEBF0FBECDBF9C838B83BD
:1040D0007E836D8358874F831982EB81FC81828DAB
:1040E000882371F18B819C812D813E81B9010E94D1
:1040F0008121EB81FC81828D8150EB81FC81828F5B
:10410000EB81FC81858D8F3F89F4EB81FC8180857B
:10411000882399F08B819C8108960E9439278823F7
:1041200061F0EF81F88581E0808307C0EB81FC813D
:10413000858D8F5FEB81FC81858F81E08A8301C053
:104140001A828A8128960FB6F894DEBF0FBECDBFC3
:10415000CF91DF910895DF93CF9300D00F92CDB729
:10416000DEB79B838A830FB6F8940F92EA81FB81B6
:10417000828D89830F900FBE89810F900F900F90D1
:10418000CF91DF910895DF93CF9300D00F92CDB7F9
:10419000DEB79B838A83EA81FB81828D8983898153
:1041A0000F900F900F90CF91DF910895DF93CF93F1
:1041B00000D0CDB7DEB79A838983E981FA81808107
:1041C00091810E941A1689819A810E941A160F9075
:1041D0000F90CF91DF910895DF93CF9300D000D05F
:1041E0000F92CDB7DEB79A8389837C836B834D832F
:1041F000E981FA81848D882309F474C08D81882334
:1042000099F5E981FA8164817581E981FA81848D6A
:10421000482F50E02B813C81CB01B9010E94052A37
:10422000E981FA8124813581E981FA81848D882FA1
:1042300090E0820F931FE981FA8195838483E9815D
:10424000FA8124813581E981FA818281938128175D
:10425000390708F447C0E981FA8180819181E981B9
:10426000FA81958384833EC0E981FA8166817781F2
:10427000E981FA81848D482F50E02B813C81CB016C
:10428000B9010E94052AE981FA8126813781E981F5
:10429000FA81848D882F90E0909581959F4F820FB1
:1042A000931FE981FA8197838683E981FA812681C8
:1042B0003781E981FA81808191812817390790F44B
:1042C000E981FA8122813381E981FA81848D882F05
:1042D00090E0909581959F4F820F931FE981FA811D
:1042E00097838683E981FA81828D8F5FE981FA81E4
:1042F000828F0F900F900F900F900F90CF91DF91C2
:104300000895DF93CF9300D000D0CDB7DEB79A8366
:1043100089837C836B83E981FA8180819181009715
:1043200089F1E981FA8126813781E981FA81848DD9
:10433000882F90E0820F931FE981FA81978386830B
:10434000E981FA8126813781E981FA81828193812D
:104350002817390740F0E981FA8180819181E9814C
:10436000FA8197838683E981FA8146815781E981C1
:10437000FA81848D282F30E08B819C81BA01A901BC
:104380000E94052A0F900F900F900F90CF91DF9110
:104390000895DF93CF9300D0CDB7DEB79A8389839A
:1043A0000FB6F8940F9215C0E981FA8181898823AC
:1043B000A9F089819A8141960E943927882311F0BA
:1043C0000E941728E981FA81868D8150E981FA815E
:1043D000868FE981FA81868D181634F3E981FA8196
:1043E0008FEF868F0F900FBE0FB6F8940F9215C007
:1043F000E981FA8180858823A9F089819A810896CC
:104400000E943927882311F00E941728E981FA8138
:10441000858D8150E981FA81858FE981FA81858DC9
:10442000181634F3E981FA818FEF858F0F900FBE54
:104430000F900F90CF91DF910895DF93CF9300D02D
:104440000F92CDB7DEB79B838A830FB6F8940F9295
:10445000EA81FB81828D1982882311F481E08983AE
:104460000F900FBE89810F900F900F90CF91DF9129
:104470000895DF93CF9300D00F92CDB7DEB79B8323
:104480008A83EA81FB81828D1982882311F481E07D
:10449000898389810F900F900F90CF91DF910895BC
:1044A000DF93CF9300D00F92CDB7DEB79B838A8383
:1044B0000FB6F8940F92EA81FB81928DEA81FB811D
:1044C000838D1982981711F481E089830F900FBEB4
:1044D00089810F900F900F90CF91DF910895DF9316
:1044E000CF9300D00F92CDB7DEB79B838A83EA814A
:1044F000FB81928DEA81FB81838D1982981711F4DB
:1045000081E0898389810F900F900F90CF91DF9187
:104510000895DF93CF93CDB7DEB7EDE2F0E081E50C
:104520008083CF91DF910895DF93CF93CDB7DEB72E
:10453000EDE2F0E080E48083CF91DF910895DF9396
:10454000CF930F92CDB7DEB78983EFE2F0E0898198
:104550008083EEE2F0E080818823DCF70F90CF913A
:10456000DF910895DF93CF93CDB7DEB7EEE2F0E0B1
:1045700080818823DCF7EFE2F0E08081CF91DF914A
:104580000895AF92BF92CF92DF92EF92FF920F9376
:104590001F93DF93CF93CDB7DEB764970FB6F89430
:1045A000DEBF0FBECDBF9F838E83798768875B8711
:1045B0004A873D872C870E87F88AEF86DA8AC98A70
:1045C000BC8AAB8A8A859B8529893A89B9010E9470
:1045D00046299C838B838B819C81009709F499C029
:1045E000EB81FC812789308D8A859B850197820F1D
:1045F000931F9A8389838B819C8128853985EB89D8
:10460000FC89AA85BB85B9014E859F018D010E9459
:104610002B2889819A812E813F814C855D85B90146
:104620000E94361BEB81FC81918380838F85988962
:10463000009731F0EF85F8898B819C81918380838D
:104640000FB6F8940F92809159078F5F80935907A6
:104650008091560790915707009769F48B819C8150
:104660009093570780935607809159078130A9F49A
:104670000E94822812C080915E07882371F4E09125
:104680005607F091570796898E85891730F08B81F0
:104690009C819093570780935607EB81FC81968904
:1046A00080915C07891728F4EB81FC8186898093CF
:1046B0005C07809163078F5F80936307EB81FC81C8
:1046C000968980915D07891728F4EB81FC818689A2
:1046D00080935D07EB81FC818689282F30E0C9013A
:1046E000880F991F880F991F880F991F820F931F9A
:1046F000AC014C59584F8B819C819C012E5F3F4FE0
:10470000CA01B9010E94821781E08D830F900FBE0C
:1047100002C08FEF8D838D81813071F480915E07AF
:10472000882351F0E0915607F091570796898E85BE
:10473000981710F40E94F51C8D8164960FB6F894BA
:10474000DEBF0FBECDBFCF91DF911F910F91FF90C4
:10475000EF90DF90CF90BF90AF900895DF93CF930D
:1047600000D000D000D0CDB7DEB79C838B830FB6CE
:10477000F8940F9220915607309157078B819C81B6
:104780008217930711F41C821B828B819C810097F6
:1047900039F480915607909157079E838D8304C00A
:1047A0008B819C819E838D838D819E819A83898359
:1047B00089819A8102960E943A18E981FA81848956
:1047C0009589009729F089819A810C960E943A1860
:1047D00089819A819C012E5F3F4F80EB97E0B90160
:1047E0000E948217809158078F5F809358078091AD
:1047F00063078F5F809363070F900FBE80915E0702
:10480000882331F08B819C81009711F40E94F51C64
:1048100026960FB6F894DEBF0FBECDBFCF91DF91C5
:104820000895DF93CF93CDB7DEB728970FB6F894EE
:10483000DEBF0FBECDBF9E838D8378876F831982C5
:104840000E94FD24ED81FE81208131818F81988538
:10485000820F931F9C838B83ED81FE8120813181A8
:1048600080915A0790915B0782179307A8F4ED8116
:10487000FE81208131818B819C818217930700F515
:1048800020915A0730915B078B819C81281739074B
:10489000B8F481E0898314C0ED81FE8120813181EB
:1048A0008B819C818217930748F020915A073091A1
:1048B0005B078B819C812817390710F481E089837D
:1048C000ED81FE818B819C81918380838981882306
:1048D00059F0809156079091570702960E943A1816
:1048E0008B819C810E94FD280E9409258A838A81F0
:1048F000882311F40E94F51C28960FB6F894DEBFA9
:104900000FBECDBFCF91DF910895DF93CF9300D03D
:1049100000D00F92CDB7DEB79D838C8319828C8136
:104920009D810097D1F00E94FD2420915A0730917B
:104930005B078C819D81820F931F9B838A8380916B
:1049400056079091570702960E943A188A819B81D8
:104950000E94FD280E94092589838981882311F4FA
:104960000E94F51C0F900F900F900F900F90CF9119
:10497000DF910895AF92BF92CF92DF92EF92FF92B4
:104980000F93DF93CF930F92CDB7DEB72FEE30E0CA
:1049900081E298E2B90145E550E020E030E000E036
:1049A000EE24FF24CC24DD24AA24BB240E94C122AF
:1049B00089838981813051F4F89481E080935E0786
:1049C00010925B0710925A070E94B91C0F90CF916A
:1049D000DF910F91FF90EF90DF90CF90BF90AF905D
:1049E0000895DF93CF93CDB7DEB7F89410925E07AA
:1049F0000E94EE1CCF91DF910895DF93CF93CDB746
:104A0000DEB780915F078F5F80935F07CF91DF9163
:104A10000895DF93CF9300D000D0CDB7DEB71A82D0
:104A20000FB6F8940F9280915F07815080935F07D3
:104A300080915F07882309F06CC080915907882313
:104A400009F467C0198241C0E091AC07F091AD074D
:104A5000868197819C838B838B819C810C960E949D
:104A60003A188B819C8102960E943A18EB81FC8156
:104A7000968980915D07891728F4EB81FC818689EE
:104A800080935D07EB81FC818689282F30E0C90186
:104A9000880F991F880F991F880F991F820F931FE6
:104AA0008C59984F2B813C812E5F3F4FB9010E945A
:104AB0008217EB81FC819689E0915607F0915707A8
:104AC0008689981710F081E089838091A707882351
:104AD00009F0BACF80916007882371F007C00E9467
:104AE000C82580916007815080936007809160079E
:104AF0008823A9F781E089838981813021F0809121
:104B00006107813031F481E08A83109261070E944D
:104B1000F51C0F900FBE8A810F900F900F900F9091
:104B2000CF91DF910895DF93CF9300D0CDB7DEB75B
:104B30000FB6F8940F9280915A0790915B079A8371
:104B400089830F900FBE89819A810F900F90CF912A
:104B5000DF910895DF93CF9300D00F92CDB7DEB7EA
:104B6000198280915A0790915B079B838A838A817F
:104B70009B810F900F900F90CF91DF910895DF935D
:104B8000CF93CDB7DEB780915907CF91DF910895CC
:104B9000DF93CF9300D000D000D0CDB7DEB78091A7
:104BA0005F07882309F0BBC080915A0790915B078B
:104BB000019690935B0780935A0780915A079091D2
:104BC0005B070097D1F58091A3079091A4079C8380
:104BD0008B838091A5079091A6079093A40780935B
:104BE000A3078B819C819093A6078093A507809152
:104BF00062078F5F80936207E091A307F091A4079B
:104C00008081882339F48FEF9FEF90932801809360
:104C1000270113C0E091A307F091A4070580F68156
:104C2000E02D868197819E838D83ED81FE81828137
:104C30009381909328018093270120915A07309106
:104C40005B0780912701909128012817390708F404
:104C50006BC0E091A307F091A4078081882339F409
:104C60008FEF9FEF90932801809327015DC0E09123
:104C7000A307F091A4070580F681E02D8681978136
:104C80009E838D83ED81FE81828193819A838983C6
:104C900020915A0730915B0789819A81281739073B
:104CA00038F489819A8190932801809327013CC030
:104CB0008D819E8102960E943A18ED81FE81848941
:104CC0009589009729F08D819E810C960E943A1853
:104CD000ED81FE81968980915D07891728F4ED8129
:104CE000FE81868980935D07ED81FE818689282F6C
:104CF00030E0C901880F991F880F991F880F991FED
:104D0000820F931FAC014C59584F8D819E819C019D
:104D10002E5F3F4FCA01B9010E9482179ACF80913E
:104D200060078F5F8093600726960FB6F894DEBF0A
:104D30000FBECDBFCF91DF910895DF93CF9300D009
:104D4000CDB7DEB780915F07882349F081E080937B
:104D5000610754C080915D07815080935D07809109
:104D60005D07282F30E0C901880F991F880F991F10
:104D7000880F991F820F931FFC01EC59F84F808117
:104D8000882341F380915D07282F30E0C901880F07
:104D9000991F880F991F880F991F820F931F8C5995
:104DA000984F9A838983E981FA810180F281E02D0D
:104DB00082819381E981FA8192838183E981FA81F9
:104DC0002181328189819A8103962817390759F404
:104DD000E981FA810180F281E02D82819381E9816C
:104DE000FA8192838183E981FA810180F281E02D49
:104DF0008681978190935707809356070F900F9065
:104E0000CF91DF910895DF93CF9300D000D000D0F1
:104E1000CDB7DEB79C838B837E836D834B815C81B2
:104E200080915607909157079C01245F3F4FCA011C
:104E3000B9010E94CE1780915607909157070296AC
:104E40000E943A1820915A0730915B078D819E810C
:104E5000820F931F9A83898389819A810E94FD28FA
:104E600026960FB6F894DEBF0FBECDBFCF91DF916F
:104E70000895DF93CF9300D000D00F92CDB7DEB767
:104E80009D838C83EC81FD810580F681E02D8681F8
:104E900097819B838A838A819B810C960E943A1812
:104EA00080915F07882361F58A819B8102960E9429
:104EB0003A18EA81FB81968980915D07891728F469
:104EC000EA81FB81868980935D07EA81FB8186897F
:104ED000282F30E0C901880F991F880F991F880F6C
:104EE000991F820F931FAC014C59584F8A819B81A7
:104EF0009C012E5F3F4FCA01B9010E9482170AC070
:104F00008A819B819C01245F3F4F87EA97E0B9012A
:104F10000E948217EA81FB819689E0915607F09101
:104F200057078689981718F081E0898301C0198294
:104F300089810F900F900F900F900F90CF91DF917C
:104F40000895DF93CF9300D0CDB7DEB79A838983DE
:104F500080916207E981FA81808380915A0790915C
:104F60005B07E981FA81928381830F900F90CF9143
:104F7000DF910895DF93CF9300D000D00F92CDB78B
:104F8000DEB79B838A837D836C830FB6F8940F9280
:104F9000EA81FB81908180916207981771F0EA8124
:104FA000FB812181328180915A0790915B078217A2
:104FB000930718F081E089832FC020915A07309120
:104FC0005B07EA81FB8181819281281B390BEC818F
:104FD000FD818081918128173907E0F4EC81FD8102
:104FE00040815181EA81FB812181328180915A0780
:104FF00090915B07B901681B790BCB01840F951F5A
:10500000EC81FD81918380838A819B810E94A1270D
:10501000198202C081E089830F900FBE89810F90B1
:105020000F900F900F900F90CF91DF910895DF9325
:10503000CF93CDB7DEB781E080936107CF91DF9149
:105040000895DF93CF9300D0CDB7DEB79A838983DD
:105050000E94BF28FDCF0F931F93DF93CF93CDB74F
:10506000DEB729970FB6F894DEBF0FBECDBF9A8387
:1050700089837C836B834D833F832E8319870887C5
:1050800089819A8149962B813C81B90148E050E0A1
:105090000E94152AE981FA8110A28D81853010F0D5
:1050A00084E08D83E981FA818D81868B89819A8163
:1050B00002960E94721789819A810C960E9472173B
:1050C000E981FA8189819A81918780878D81282F52
:1050D00030E085E090E0821B930BE981FA819587AF
:1050E0008487E981FA8189819A81938B828B2996C1
:1050F0000FB6F894DEBF0FBECDBFCF91DF911F91E9
:105100000F910895DF93CF930F92CDB7DEB7198239
:1051100013C08981282F30E0C901880F991F880F9B
:10512000991F880F991F820F931F8C59984F0E94C7
:10513000481789818F5F89838981853050F381E9A0
:1051400097E00E9448178AE997E00E94481787EA8B
:1051500097E00E94481780EB97E00E94481781E98A
:1051600097E09093A4078093A3078AE997E0909330
:10517000A6078093A5070F90CF91DF910895DF9345
:10518000CF9300D00F92CDB7DEB780915807882318
:1051900071F10E94FD248091B0071B82882311F4D5
:1051A00081E08B830E9409258B81882301F50FB64E
:1051B000F8940F92E091B507F091B6078681978138
:1051C0009A83898389819A8102960E943A188091F4
:1051D00059078150809359078091580781508093D7
:1051E00058070F900FBE89819A810E9496290F90CF
:1051F0000F900F90CF91DF910895DF93CF9300D060
:10520000CDB7DEB79A838983E0915607F0915707AF
:1052100089819A819383828320915A0730915B0719
:1052200089819A818217930770F48091A5079091E4
:10523000A60720915607309157072E5F3F4FB901BF
:105240000E94CE171EC04091A3075091A4078091E1
:105250005607909157079C012E5F3F4FCA01B90135
:105260000E94CE17209127013091280189819A81CF
:105270008217930730F489819A8190932801809353
:1052800027010F900F90CF91DF910895DF93CF9377
:10529000CDB7DEB728970FB6F894DEBF0FBECDBFEF
:1052A0009C838B837E836D8381E290E00E94D41582
:1052B0009A83898389819A81009769F18D819E8182
:1052C000009739F48B819C810E94D41598878F8335
:1052D00004C08D819E8198878F83E981FA818F81B7
:1052E0009885908F878BE981FA818789908D0097C7
:1052F00039F489819A810E941A161A8219820BC088
:10530000E981FA818789908D2B813C8165EA70E083
:10531000A9010E940E2A89819A8128960FB6F894D5
:10532000DEBF0FBECDBFCF91DF910895DF93CF9346
:1053300000D0CDB7DEB79A838983E981FA81878966
:10534000908D0E941A1689819A810E941A160F90D8
:105350000F90CF91DF910895A1E21A2EAA1BBB1BDB
:10536000FD010DC0AA1FBB1FEE1FFF1FA217B30731
:10537000E407F50720F0A21BB30BE40BF50B661F47
:10538000771F881F991F1A9469F76095709580950B
:1053900090959B01AC01BD01CF0108952F923F92E2
:1053A0004F925F926F927F928F929F92AF92BF9235
:1053B000CF92DF92EF92FF920F931F93CF93DF93E1
:1053C000CDB7DEB7CA1BDB0B0FB6F894DEBF0FBE3E
:1053D000CDBF09942A88398848885F846E847D848B
:1053E0008C849B84AA84B984C884DF80EE80FD808D
:1053F0000C811B81AA81B981CE0FD11D0FB6F89403
:10540000DEBF0FBECDBFED010895FB01DC0102C080
:1054100001900D9241505040D8F70895DC0101C031
:105420006D9341505040E0F70895FB01DC0141507D
:10543000504048F001900D920020C9F701C01D9224
:0C54400041505040E0F70895F894FFCF71
:10544C00484F4C412C00494E204D5920534D415250
:10545C005420484F4D4500456E74657220596F7548
:10546C007220506173730057726F6E6720506173B6
:10547C0073004F4820594F555220474F4F44204DF1
:10548C00616E00536F7272792054727920332054FC
:10549C00696D657300312D4C494748542000322DFD
:1054AC0041432000332D54562000342D54454D508B
:1054BC0000312D4F4E2000322D4F464600312D52DB
:1054CC004F4F4D313A00322D524F4F4D323A004929
:1054DC00444C450000000000000000003031323325
:1054EC00343536373839303132333435363738395C
:1054FC0001020304050607313233343536373839A7
:0A550C002A30232337322AFFFF0064
:00000001FF
