:100000000C942A000C9447000C9447000C94470071
:100010000C9447000C9447000C9447000C94470044
:100020000C9447000C9447000C9447000C94470034
:100030000C9447000C9447000C9447000C94470024
:100040000C9447000C9447000C9447000C94470014
:100050000C94470011241FBECFE5D4E0DEBFCDBF16
:1000600011E0A0E6B0E0E8E7FBE202C005900D92E7
:10007000A437B107D9F711E0A4E7B1E001C01D92A0
:10008000A838B107E1F70E9433100C94BA150C940C
:100090000000EF92FF920F931F937B018C0120E0F1
:1000A00030E040E05FE40E94490388238CF0C801FF
:1000B000B70120E030E040E05FE40E94C1010E940F
:1000C000A9039B01AC01205030404040504806C07D
:1000D000C801B7010E94A9039B01AC01B901CA0183
:1000E0001F910F91FF90EF900895A0E0B0E0EBE733
:1000F000F0E00C948315DC012B01FA019C91923005
:1001000008F439C1EB018881823008F433C194309E
:1001100069F4843009F02FC111969C91119789815F
:10012000981709F428C1A1E4B1E025C1843009F48D
:1001300021C18230A9F4923009F01DC19A01AD01AC
:1001400088E0EA010990AE01E90109929E0181501F
:10015000C1F7E201898111969C918923818308C1AD
:10016000923009F407C112962D903C901397EB0141
:100170008A819B811496AD90BD90CD90DC901797AD
:10018000EC80FD800E811F819101281B390BB90184
:1001900037FF04C066277727621B730B6032710537
:1001A0000CF061C0121613066CF537014801062EDB
:1001B00004C096948794779467940A94D2F721E0C8
:1001C00030E040E050E004C0220F331F441F551FB1
:1001D0006A95D2F721503040404050402E213F21B7
:1001E00040235123211531054105510521F021E01E
:1001F00030E040E050E079018A01E628F72808293C
:1002000019293CC0232BD1F1260E371E350146019A
:10021000062E04C096948794779467940A94D2F734
:1002200021E030E040E050E004C0220F331F441FC3
:10023000551F6A95D2F721503040404050402A2146
:100240003B214C215D21211531054105510521F04E
:1002500021E030E040E050E059016A01A628B728CB
:10026000C828D9280BC0821593052CF01C01AA249C
:10027000BB24650103C0EE24FF24870111969C91E5
:10028000D20111968C91981709F445C0992339F041
:10029000A80197012A193B094C095D0906C0A6016E
:1002A00095012E193F09400B510B57FD08C01182D3
:1002B0003382228224833583468357831DC081E0A5
:1002C00081833382228288279927DC01821B930B4A
:1002D000A40BB50B84839583A683B7830DC0220F2F
:1002E000331F441F551F24833583468357838281E0
:1002F000938101979383828324813581468157813D
:10030000DA01C9010197A109B1098F5F9F4FAF4F72
:10031000BF4328F30BC0918333822282EA0CFB1C7B
:100320000C1D1D1DE482F5820683178383E0808304
:10033000248135814681578157FF1AC0C901AA27F8
:1003400097FDA095BA2F81709070A070B0705695EF
:10035000479537952795822B932BA42BB52B848318
:100360009583A683B7838281938101969383828349
:10037000DF0101C0D201CD01CDB7DEB7E2E10C94BF
:100380009F15A0E2B0E0E7ECF1E00C948F156983D3
:100390007A838B839C832D833E834F835887E9E048
:1003A000EE2EF12CEC0EFD1ECE010196B7010E943F
:1003B000D2048E010F5E1F4FCE010596B8010E9438
:1003C000D2048A8991E089278A8BC701B801AE01DE
:1003D000475E5F4F0E9475000E94FD03A096E6E015
:1003E0000C94AB15A0E2B0E0E8EFF1E00C948F15AF
:1003F00069837A838B839C832D833E834F835887C5
:10040000F9E0EF2EF12CEC0EFD1ECE010196B701A6
:100410000E94D2048E010F5E1F4FCE010596B801D7
:100420000E94D204C701B801AE01475E5F4F0E942F
:1004300075000E94FD03A096E6E00C94AB15A0E2C7
:10044000B0E0E5E2F2E00C94831569837A838B8354
:100450009C832D833E834F835887CE010196BE0136
:10046000675F7F4F0E94D204CE010596BE016F5E8A
:100470007F4F0E94D2049985923088F0898982301A
:10048000C8F0943019F4823051F404C0843029F457
:10049000923081F481E491E0C6C0923049F420E0CA
:1004A0009A858A89981321E02A87CE010996BBC0D4
:1004B000823049F420E09A858A89981321E02A8BBA
:1004C000CE014196B0C02D843E844F8458886D88FB
:1004D0007E888F88988CEE24FF248701AA24BB2471
:1004E000650140E050E060E070E0E0E0F0E0C10174
:1004F00081709070892BE9F0E60CF71C081D191D1E
:100500009A01AB012A0D3B1D4C1D5D1D80E090E062
:10051000A0E0B0E0E614F7040805190520F481E036
:1005200090E0A0E0B0E0BA01A901480F591F6A1F8E
:100530007B1FAA0CBB1CCC1CDD1C97FE08C081E0F5
:1005400090E0A0E0B0E0A82AB92ACA2ADB2A3196B6
:10055000E032F10549F0660C771C881C991C569412
:10056000479437942794C3CFFA85EA892B893C892D
:100570008B859C85280F391F2E5F3F4F17C0CA01FE
:1005800081709070892B61F016950795F794E79428
:1005900080E090E0A0E0B0E8E82AF92A0A2B1B2BC3
:1005A00076956795579547952F5F3F4F77FDE7CF36
:1005B0000CC0440F551F661F771F17FD4160EE0CDE
:1005C000FF1C001F111F21503040403090E05907A0
:1005D00090E0690790E4790760F32B8F3C8FDB0193
:1005E000CA018F779070A070B07080349105A1051A
:1005F000B10561F447FD0AC0E114F10401051105DC
:1006000029F0405C5F4F6F4F7F4F40781A8EFE1786
:1006100011F081E08A8F4D8F5E8F6F8F78A383E01A
:10062000898FCE0149960E94FD03A096E2E10C94C9
:100630009F15A8E1B0E0EFE1F3E00C948F1569831A
:100640007A838B839C832D833E834F83588789E0F5
:10065000E82EF12CEC0EFD1ECE010196B7010E9492
:10066000D2048E010F5E1F4FCE010596B8010E9485
:10067000D2048985823040F08989823028F0C70110
:10068000B8010E944A0501C08FEF6896E6E00C941D
:10069000AB15A8E1B0E0EFE4F3E00C948F156983AB
:1006A0007A838B839C832D833E834F83588789E095
:1006B000E82EF12CEC0EFD1ECE010196B7010E9432
:1006C000D2048E010F5E1F4FCE010596B8010E9425
:1006D000D2048985823040F08989823028F0C701B0
:1006E000B8010E944A0501C08FEF6896E6E00C94BD
:1006F000AB15A8E1B0E0EFE7F3E00C948F15698348
:100700007A838B839C832D833E834F83588789E034
:10071000E82EF12CEC0EFD1ECE010196B7010E94D1
:10072000D2048E010F5E1F4FCE010596B8010E94C4
:10073000D2048985823040F08989823028F0C7014F
:10074000B8010E944A0501C081E06896E6E00C9479
:10075000AB15ACE0B0E0EFEAF3E00C9493156983DD
:100760007A838B839C83CE010196BE016B5F7F4FA2
:100770000E94D2048D81823061F1823050F1843048
:1007800021F48E81882351F12EC02F81388537FDC9
:1007900020C06E812F3131051CF06623F9F023C093
:1007A0008EE190E0821B930B29853A854B855C8511
:1007B00004C056954795379527958A95D2F76623B5
:1007C000B1F050954095309521953F4F4F4F5F4F79
:1007D0000EC020E030E040E050E009C02FEF3FEFD6
:1007E0004FEF5FE704C020E030E040E050E8B9019F
:1007F000CA012C96E2E00C94AF15DF92EF92FF92C3
:100800000F931F93FC01E480F58006811781D1804E
:100810008081823048F480E090E0A0E1B0E0E82AF6
:10082000F92A0A2B1B2BA5C0843009F49FC0823003
:1008300021F4EE24FF24870105C0E114F104010531
:10084000110519F4E0E0F0E096C0628173819FEF3A
:10085000623879070CF05BC022E83FEF261B370BAC
:100860002A3131052CF020E030E040E050E02AC091
:10087000B801A701022E04C0769567955795479554
:100880000A94D2F781E090E0A0E0B0E004C0880FC5
:10089000991FAA1FBB1F2A95D2F70197A109B10979
:1008A0008E219F21A023B1230097A105B10521F03E
:1008B00081E090E0A0E0B0E09A01AB01282B392B59
:1008C0004A2B5B2BDA01C9018F779070A070B07052
:1008D00080349105A105B10539F427FF09C0205CDA
:1008E0003F4F4F4F5F4F04C0215C3F4F4F4F5F4F13
:1008F000E0E0F0E02030A0E03A07A0E04A07A0E402
:100900005A0710F0E1E0F0E079018A0127C0603871
:10091000710564F5FB01E158FF4FD801C7018F77DE
:100920009070A070B07080349105A105B10539F4C4
:10093000E7FE0DC080E490E0A0E0B0E004C08FE3EB
:1009400090E0A0E0B0E0E80EF91E0A1F1B1F17FFA1
:1009500005C016950795F794E794319687E01695AC
:100960000795F794E7948A95D1F705C0EE24FF2404
:100970008701EFEFF0E06E2F679566276795902F60
:100980009F77D794DD24D7948E2F8695492F462BB9
:10099000582F5D29B701CA011F910F91FF90EF9069
:1009A000DF900895FC01DB01408151812281622F9B
:1009B0006F7770E0221F2227221F9381892F880FD3
:1009C000822B282F30E0991F9927991F11969C930D
:1009D000119721153105A9F54115510561057105DD
:1009E00011F482E037C082E89FEF13969C938E93B8
:1009F00012979A01AB0167E0220F331F441F551F66
:100A00006A95D1F783E08C930DC0220F331F441FEA
:100A1000551F12968D919C911397019713969C9355
:100A20008E931297203080E0380780E0480780E4FA
:100A3000580758F314962D933D934D935C93179755
:100A400008952F3F310579F4411551056105710570
:100A500019F484E08C93089564FF03C081E08C93C3
:100A600012C01C9210C02F57304013963C932E9307
:100A7000129783E08C9387E0440F551F661F771F02
:100A80008A95D1F7706414964D935D936D937C9322
:100A9000179708951F93DC01FB019C91923008F495
:100AA00047C08081823008F443C0943051F41196DD
:100AB0001C91843099F58181682F70E0611B710968
:100AC0003FC0843021F0923031F48230B9F181811D
:100AD000882389F12DC011961C9111978230F1F075
:100AE00081811817D9F412962D913C911397828128
:100AF00093818217930794F028173907BCF0149656
:100B00008D919D910D90BC91A02D248135814681C0
:100B10005781281739074A075B0718F4112341F05A
:100B20000AC082179307A407B50740F4112319F0F0
:100B300061E070E005C06FEF7FEF02C060E070E041
:100B4000CB011F910895DF93CF93CDB7DEB72F97D9
:100B50000FB6F894DEBF0FBECDBF8F8783E060E095
:100B600040E00E94B80883E061E040E00E94B808DD
:100B700082E06F850E94680883E062E041E00E94A5
:100B8000B80880E090E0A0E0B0E48B879C87AD8758
:100B9000BE876B857C858D859E8520E030E04AE7A9
:100BA00053E40E941F02DC01CB018F839887A98741
:100BB000BA876F81788589859A8520E030E040E8A2
:100BC0005FE30E94790388232CF481E090E09E8308
:100BD0008D833FC06F81788589859A8520E03FEFBE
:100BE0004FE757E40E94190318164CF56B857C8576
:100BF0008D859E8520E030E040E251E40E941F0296
:100C0000DC01CB01BC01CD010E944900DC01CB011C
:100C10009E838D830FC089E190E09C838B838B81C1
:100C20009C810197F1F79C838B838D819E81019735
:100C30009E838D838D819E81009769F714C06F819B
:100C4000788589859A850E944900DC01CB019E83C5
:100C50008D838D819E819A83898389819A81019771
:100C6000F1F79A83898383E062E040E00E94B8084C
:100C70002F960FB6F894DEBF0FBECDBFCF91DF9198
:100C80000895DF93CF93CDB7DEB72E970FB6F894C4
:100C9000DEBF0FBECDBF80E090E0A0E2B2E48B8764
:100CA0009C87AD87BE876B857C858D859E8520E082
:100CB00030E04AE753E40E941F02DC01CB018F833E
:100CC0009887A987BA876F81788589859A8520E07A
:100CD00030E040E85FE30E94790388232CF481E050
:100CE00090E09E838D833FC06F81788589859A854A
:100CF00020E03FEF4FE757E40E94190318164CF528
:100D00006B857C858D859E8520E030E040E251E456
:100D10000E941F02DC01CB01BC01CD010E944900F1
:100D2000DC01CB019E838D830FC089E190E09C8321
:100D30008B838B819C810197F1F79C838B838D81C1
:100D40009E8101979E838D838D819E81009769F797
:100D500014C06F81788589859A850E944900DC01DD
:100D6000CB019E838D838D819E819A838983898126
:100D70009A810197F1F79A83898388E30E94A305FA
:100D80008CE00E94A30581E00E94A3052E960FB679
:100D9000F894DEBF0FBECDBFCF91DF910895DF93F2
:100DA000CF93CDB7DEB72F970FB6F894DEBF0FBE47
:100DB000CDBF8F8783E060E041E00E94B80883E008
:100DC00061E040E00E94B80882E06F850E946808F8
:100DD00083E062E041E00E94B80880E090E0A0E09B
:100DE000B0E48B879C87AD87BE876B857C858D85BE
:100DF0009E8520E030E04AE753E40E941F02DC01B8
:100E0000CB018F839887A987BA876F817885898579
:100E10009A8520E030E040E85FE30E947903882370
:100E20002CF481E090E09E838D833FC06F817885B4
:100E300089859A8520E03FEF4FE757E40E94190328
:100E400018164CF56B857C858D859E8520E030E0FD
:100E500040E251E40E941F02DC01CB01BC01CD0144
:100E60000E944900DC01CB019E838D830FC089E184
:100E700090E09C838B838B819C810197F1F79C830D
:100E80008B838D819E8101979E838D838D819E8131
:100E9000009769F714C06F81788589859A850E94CB
:100EA0004900DC01CB019E838D838D819E819A83D5
:100EB000898389819A810197F1F79A83898383E0F5
:100EC00062E040E00E94B8082F960FB6F894DEBFAB
:100ED0000FBECDBFCF91DF910895DF93CF9300D0A8
:100EE0000F92CDB7DEB79B838A8319820EC08981AA
:100EF000282F30E08A819B81FC01E20FF31F808163
:100F00000E94CF0689818F5F89838981282F30E0F5
:100F10008A819B81FC01E20FF31F8081882339F7CE
:100F20000F900F900F90CF91DF910895DF93CF93A3
:100F300000D00F92CDB7DEB78A836B838A81882376
:100F400019F48B81898306C08A81813019F48B81E1
:100F5000805C8983898180680E94A3050F900F902F
:100F60000F90CF91DF910895DF93CF93CDB7DEB788
:100F700027970FB6F894DEBF0FBECDBF6C837D837D
:100F80008E839F831A828C819D81AE81BF81009761
:100F9000A105B105B9F5809149010E94CF064EC067
:100FA0008C819D81AE81BF812AE030E040E050E03D
:100FB000BC01CD010E946115DC01CB018B838C81CA
:100FC0009D81AE81BF812AE030E040E050E0BC016D
:100FD000CD010E946115DA01C9018C839D83AE8326
:100FE000BF838A81282F30E08B81882F90E0FC011D
:100FF000E75BFE4F8081F901EC58FE4F80838A81C8
:101000008F5F8A838C819D81AE81BF810097A1050E
:10101000B10531F68A81815089830DC08981992774
:1010200087FD9095FC01EC58FE4F80810E94CF0611
:101030008981815089838981882384F727960FB617
:10104000F894DEBF0FBECDBFCF91DF910895DF933F
:10105000CF93CDB7DEB727970FB6F894DEBF0FBE9C
:10106000CDBF9C838B836D834E832F831A828D81AA
:10107000882F90E0880F991F880F991F880F991F5C
:101080008A838A8180640E94A30519820EC08981A7
:10109000282F30E08B819C81FC01E20FF31F8081BF
:1010A0000E94CF0689818F5F89838981883078F398
:1010B0008E816F810E9496078D810E94CF062796B0
:1010C0000FB6F894DEBF0FBECDBFCF91DF9108956C
:1010D000DF93CF9300D000D000D0CDB7DEB78A83A6
:1010E0006B8319828A81843028F081E08983298189
:1010F0002E8334C08A81282F30E03D832C838C815D
:101100009D8181309105D1F02C813D8122303105C6
:101110002CF48C819D81009761F01EC02C813D8153
:101120002230310581F08C819D818330910581F0E1
:1011300013C0EBE3F0E08B8180830EC0E8E3F0E0C6
:101140008B81808309C0E5E3F0E08B81808304C05C
:10115000E2E3F0E08B81808399819E838E812696E5
:101160000FB6F894DEBF0FBECDBFCF91DF910895CB
:10117000DF93CF93CDB7DEB729970FB6F894DEBFD4
:101180000FBECDBF8A836B834C8319828A818430E2
:1011900028F081E0898329812987F4C08B818830F8
:1011A00028F081E0898339813987ECC08C818130D6
:1011B00009F06FC08A81282F30E038872F838F8114
:1011C00098858130910549F12F813885223031058C
:1011D0002CF48F819885009761F0D2C02F813885DB
:1011E0002230310571F18F81988583309105E9F1C5
:1011F000C7C0ABE3B0E0EBE3F0E08081482F8B8128
:10120000282F30E081E090E0022E02C0880F991F65
:101210000A94E2F7842B8C93B3C0A8E3B0E0E8E330
:10122000F0E08081482F8B81282F30E081E090E032
:10123000022E02C0880F991F0A94E2F7842B8C9328
:101240009FC0A5E3B0E0E5E3F0E08081482F8B810B
:10125000282F30E081E090E0022E02C0880F991F15
:101260000A94E2F7842B8C938BC0A2E3B0E0E2E314
:10127000F0E08081482F8B81282F30E081E090E0E2
:10128000022E02C0880F991F0A94E2F7842B8C93D8
:1012900077C08C81882309F073C08A81282F30E0C1
:1012A0003E832D838D819E818130910559F12D8161
:1012B0003E81223031052CF48D819E81009769F0AA
:1012C0005FC02D813E812230310589F18D819E8163
:1012D0008330910509F440C053C0ABE3B0E0EBE3C9
:1012E000F0E08081482F8B81282F30E081E090E072
:1012F000022E02C0880F991F0A94E2F7809584237A
:101300008C933EC0A8E3B0E0E8E3F0E08081482F92
:101310008B81282F30E081E090E0022E02C0880F00
:10132000991F0A94E2F7809584238C9329C0A5E342
:10133000B0E0E5E3F0E08081482F8B81282F30E09A
:1013400081E090E0022E02C0880F991F0A94E2F714
:10135000809584238C9314C0A2E3B0E0E2E3F0E034
:101360008081482F8B81282F30E081E090E0022E91
:1013700002C0880F991F0A94E2F7809584238C930A
:1013800099819987898529960FB6F894DEBF0FBE9B
:10139000CDBFCF91DF910895DF93CF9300D000D0E0
:1013A00000D0CDB7DEB78A836B8319828A818430FF
:1013B00028F081E0898329812E8334C08A81282FF7
:1013C00030E03D832C838C819D8181309105D1F06B
:1013D0002C813D81223031052CF48C819D81009738
:1013E00061F01EC02C813D812230310581F08C815D
:1013F0009D818330910581F013C0EAE3F0E08B8199
:1014000080830EC0E7E3F0E08B81808309C0E4E3D2
:10141000F0E08B81808304C0E1E3F0E08B81808386
:1014200099819E838E8126960FB6F894DEBF0FBEFB
:10143000CDBFCF91DF910895DF93CF93CDB7DEB7C6
:1014400029970FB6F894DEBF0FBECDBF8A836B839A
:101450004C8319828A81843028F081E08983298134
:101460002987F4C08B81883028F081E08983398115
:101470003987ECC08C81813009F06FC08A81282FB8
:1014800030E038872F838F8198858130910549F12D
:101490002F813885223031052CF48F819885009773
:1014A00061F0D2C02F8138852230310571F18F81F2
:1014B000988583309105E9F1C7C0AAE3B0E0EAE37B
:1014C000F0E08081482F8B81282F30E081E090E090
:1014D000022E02C0880F991F0A94E2F7842B8C9386
:1014E000B3C0A7E3B0E0E7E3F0E08081482F8B8151
:1014F000282F30E081E090E0022E02C0880F991F73
:101500000A94E2F7842B8C939FC0A4E3B0E0E4E359
:10151000F0E08081482F8B81282F30E081E090E03F
:10152000022E02C0880F991F0A94E2F7842B8C9335
:101530008BC0A1E3B0E0E1E3F0E08081482F8B8134
:10154000282F30E081E090E0022E02C0880F991F22
:101550000A94E2F7842B8C9377C08C81882309F05E
:1015600073C08A81282F30E03E832D838D819E8138
:101570008130910559F12D813E81223031052CF4C5
:101580008D819E81009769F05FC02D813E81223060
:10159000310589F18D819E818330910509F440C028
:1015A00053C0AAE3B0E0EAE3F0E08081482F8B81EA
:1015B000282F30E081E090E0022E02C0880F991FB2
:1015C0000A94E2F7809584238C933EC0A7E3B0E0B1
:1015D000E7E3F0E08081482F8B81282F30E081E025
:1015E00090E0022E02C0880F991F0A94E2F78095BE
:1015F00084238C9329C0A4E3B0E0E4E3F0E080818D
:10160000482F8B81282F30E081E090E0022E02C02D
:10161000880F991F0A94E2F7809584238C9314C055
:10162000A1E3B0E0E1E3F0E08081482F8B81282F37
:1016300030E081E090E0022E02C0880F991F0A94EA
:10164000E2F7809584238C939981998789852996DF
:101650000FB6F894DEBF0FBECDBFCF91DF910895D6
:10166000DF93CF93CDB7DEB727970FB6F894DEBFE1
:101670000FBECDBF8A837C836B8319828A818430BD
:1016800028F081E0898329812F833CC08A81282F1B
:1016900030E03E832D838D819E8181309105E1F084
:1016A0002D813E81223031052CF48D819E81009761
:1016B00061F026C02D813E8122303105A1F08D815F
:1016C0009E8183309105B1F01BC0E9E3F0E0808199
:1016D000EB81FC81808314C0E6E3F0E08081EB8144
:1016E000FC8180830DC0E3E3F0E08081EB81FC812D
:1016F000808306C0E0E3F0E08081EB81FC818083A1
:1017000099819F838F8127960FB6F894DEBF0FBE15
:10171000CDBFCF91DF910895DF93CF93CDB7DEB7E3
:1017200028970FB6F894DEBF0FBECDBF8A836B83B8
:101730005D834C8319828A81843028F081E089831B
:10174000298128877AC08B81883028F081E08983BD
:101750003981388772C08A81482F50E05F834E8379
:101760008E819F818130910559F12E813F812230F8
:10177000310534F44E815F814115510569F05BC03C
:101780008E819F818230910579F12E813F812330B6
:10179000310509F43DC04FC0E9E3F0E08081282F16
:1017A00030E08B81882F90E0A90102C055954795C4
:1017B0008A95E2F7CA018170EC81FD8180833BC08C
:1017C000E6E3F0E08081282F30E08B81882F90E0E5
:1017D000A90102C0559547958A95E2F7CA01817023
:1017E000EC81FD81808327C0E3E3F0E08081282F36
:1017F00030E08B81882F90E0A90102C05595479574
:101800008A95E2F7CA018170EC81FD81808313C063
:10181000E0E3F0E08081282F30E08B81882F90E09A
:10182000A90102C0559547958A95E2F7CA018170D2
:10183000EC81FD81808359815887888528960FB671
:10184000F894DEBF0FBECDBFCF91DF910895DF9337
:10185000CF93CDB7DEB7AFE5B0E0EFE5F0E0808144
:1018600080688C93CF91DF910895DF93CF93CDB7AC
:10187000DEB7AFE5B0E0EFE5F0E080818F778C93E5
:10188000CF91DF910895DF93CF93CDB7DEB72F9738
:101890000FB6F894DEBF0FBECDBF8F8782E061E048
:1018A0000E94CC0983E060E041E00E941C0A83E0D2
:1018B00061E041E00E941C0A83E062E041E00E9496
:1018C0001C0A83E060E040E00E94B80883E061E029
:1018D00040E00E94B80882E06F850E94680883E0BB
:1018E00062E041E00E94B80880E090E0A0E0B0E44F
:1018F0008B879C87AD87BE876B857C858D859E8514
:1019000020E030E04AE753E40E941F02DC01CB01F3
:101910008F839887A987BA876F81788589859A850B
:1019200020E030E040E85FE30E94790388232CF454
:1019300081E090E09E838D833FC06F8178858985AB
:101940009A8520E03FEF4FE757E40E9419031816ED
:101950004CF56B857C858D859E8520E030E040E2EE
:1019600051E40E941F02DC01CB01BC01CD010E94A9
:101970004900DC01CB019E838D830FC089E190E09B
:101980009C838B838B819C810197F1F79C838B8354
:101990008D819E8101979E838D838D819E8100978D
:1019A00069F714C06F81788589859A850E944900FE
:1019B000DC01CB019E838D838D819E819A838983F7
:1019C00089819A810197F1F79A83898383E062E0A4
:1019D00040E00E94B8082F960FB6F894DEBF0FBE05
:1019E000CDBFCF91DF910895DF93CF93CDB7DEB711
:1019F0002E970FB6F894DEBF0FBECDBF80E090E00B
:101A0000A0E2B2E48B879C87AD87BE876B857C851F
:101A10008D859E8520E030E04AE753E40E941F0256
:101A2000DC01CB018F839887A987BA876F8178857E
:101A300089859A8520E030E040E85FE30E947903E1
:101A400088232CF481E090E09E838D833FC06F81DA
:101A5000788589859A8520E03FEF4FE757E40E941B
:101A6000190318164CF56B857C858D859E8520E0C5
:101A700030E040E251E40E941F02DC01CB01BC01D6
:101A8000CD010E944900DC01CB019E838D830FC0F4
:101A900089E190E09C838B838B819C810197F1F796
:101AA0009C838B838D819E8101979E838D838D8105
:101AB0009E81009769F714C06F81788589859A8522
:101AC0000E944900DC01CB019E838D838D819E8124
:101AD0009A83898389819A810197F1F79A8389830F
:101AE00088E30E94430C8CE00E94430C81E00E943A
:101AF000430C2E960FB6F894DEBF0FBECDBFCF912C
:101B0000DF910895DF93CF93CDB7DEB72F970FB650
:101B1000F894DEBF0FBECDBF8F8783E060E041E069
:101B20000E94B80883E061E040E00E94B80882E0CB
:101B30006F850E94680883E062E041E00E94B80877
:101B400080E090E0A0E0B0E48B879C87AD87BE8703
:101B50006B857C858D859E8520E030E04AE753E4E7
:101B60000E941F02DC01CB018F839887A987BA8767
:101B70006F81788589859A8520E030E040E85FE3D1
:101B80000E94790388232CF481E090E09E838D836A
:101B90003FC06F81788589859A8520E03FEF4FE7C8
:101BA00057E40E94190318164CF56B857C858D85CA
:101BB0009E8520E030E040E251E40E941F02DC01FB
:101BC000CB01BC01CD010E944900DC01CB019E8309
:101BD0008D830FC089E190E09C838B838B819C81F6
:101BE0000197F1F79C838B838D819E8101979E8362
:101BF0008D838D819E81009769F714C06F817885F0
:101C000089859A850E944900DC01CB019E838D83E2
:101C10008D819E819A83898389819A810197F1F7C9
:101C20009A83898383E062E040E00E94B8082F969F
:101C30000FB6F894DEBF0FBECDBFCF91DF910895F0
:101C4000DF93CF9300D00F92CDB7DEB79B838A830B
:101C500019820EC08981282F30E08A819B81FC0186
:101C6000E20FF31F80810E94820D89818F5F89833B
:101C70008981282F30E08A819B81FC01E20FF31FCC
:101C80008081882339F70F900F900F90CF91DF91CB
:101C90000895DF93CF9300D00F92CDB7DEB78A833C
:101CA0006B838A81882319F48B81898306C08A819A
:101CB000813019F48B81805C8983898180680E94DE
:101CC000430C0F900F900F90CF91DF910895DF9309
:101CD000CF93CDB7DEB727970FB6F894DEBF0FBE10
:101CE000CDBF6C837D838E839F831A828C819D817F
:101CF000AE81BF810097A105B105B9F5809153016F
:101D00000E94820D4EC08C819D81AE81BF812AE0F0
:101D100030E040E050E0BC01CD010E946115DC01E3
:101D2000CB018B838C819D81AE81BF812AE030E025
:101D300040E050E0BC01CD010E946115DA01C9010B
:101D40008C839D83AE83BF838A81282F30E08B8173
:101D5000882F90E0FC01ED5AFE4F8081F901E25896
:101D6000FE4F80838A818F5F8A838C819D81AE81C3
:101D7000BF810097A105B10531F68A818150898321
:101D80000DC08981992787FD9095FC01E258FE4F8F
:101D900080810E94820D8981815089838981882375
:101DA00084F727960FB6F894DEBF0FBECDBFCF9154
:101DB000DF910895DF93CF93CDB7DEB781E00E9426
:101DC000430CCF91DF910895DF93CF93CDB7DEB76A
:101DD00081E064E040E00E941C0A81E064E041E0B0
:101DE0000E94B80881E065E041E00E941C0A81E0A1
:101DF00066E040E00E941C0A81E067E041E00E944A
:101E00001C0AADE2B0E0EDE2F0E0808180618C93ED
:101E1000ADE2B0E0EDE2F0E0808181608C93ADE274
:101E2000B0E0EDE2F0E080818D7F8C93AEE2B0E037
:101E3000EEE2F0E080818E7F8C93ADE2B0E0EDE2E7
:101E4000F0E0808180648C93CF91DF910895DF93DF
:101E5000CF93CDB7DEB781E064E040E00E941C0A7A
:101E600081E065E040E00E941C0A81E066E041E01C
:101E70000E941C0A81E067E040E00E941C0A80E0AA
:101E800060E041E00E941C0AADE2B0E0EDE2F0E06B
:101E900080818F7E8C93ADE2B0E0EDE2F0E0808156
:101EA00080648C93CF91DF910895DF93CF930F924D
:101EB000CDB7DEB78983EFE2F0E089818083EEE27F
:101EC000F0E080818823DCF7EFE2F0E080810F9082
:101ED000CF91DF910895DF93CF930F92CDB7DEB707
:101EE0008983EFE2F0E089818083EEE2F0E0808197
:101EF0008823DCF70F90CF91DF910895DF93CF9384
:101F0000CDB7DEB7EEE2F0E080818823DCF7EFE2C8
:101F1000F0E08081CF91DF910895DF93CF93CDB72B
:101F2000DEB780E065E041E00E941C0A80E066E0E8
:101F300041E00E941C0A80E067E041E00E941C0A28
:101F400080E061E040E00E941C0A80E062E040E046
:101F50000E941C0A80E063E040E00E941C0A80E0CE
:101F600064E040E00E941C0A80E06FEF0E94680875
:101F7000CF91DF910895DF93CF9300D000D00F92DF
:101F8000CDB7DEB78FEF8B831A825EC08A81882F30
:101F900090E0FC01EF59FE4F908180E0692F40E016
:101FA0000E94B80819823DC08981882F90E0FC0109
:101FB000E35AFE4F90819E012C5F3F4F80E0692FD6
:101FC000A9010E948C0B8C81882341F58981282FDF
:101FD00030E08A81482F50E0C901880F991F820F95
:101FE000931F840F951FFC01EC59FE4F80818B835A
:101FF0000FC08981882F90E0FC01E35AFE4F908149
:102000009E012C5F3F4F80E0692FA9010E948C0B3D
:102010008C81882371F38B818D831CC089818F5FB4
:1020200089838981843008F4BFCF8A81882F90E02A
:10203000FC01EF59FE4F908180E0692F41E00E9442
:10204000B8088A818F5F8A838A81833008F49ECFA3
:102050008B818D838D810F900F900F900F900F903B
:10206000CF91DF9108950F931F93DF93CF93CDB757
:10207000DEB7CB54D0400FB6F894DEBF0FBECDBF55
:102080000E94F40C0E948D0F0E94E40E80E690E006
:102090000E94200E81E060E00E94490E86E690E0FA
:1020A0000E94200EFE01ED5BFF4F80E090E0AAEF62
:1020B000B4E480839183A283B3838E01015C1F4FBC
:1020C000FE01ED5BFF4F608171818281938120E091
:1020D00030E04AE753E40E941F02DC01CB01F80123
:1020E00080839183A283B383FE01FF966081718117
:1020F0008281938120E030E040E85FE30E94790331
:1021000088232CF481E090E09EAF8DAF46C0FE01A5
:10211000FF96608171818281938120E03FEF4FE7DC
:1021200057E40E941903181664F5FE01ED5BFF4F9A
:10213000608171818281938120E030E040E251E44E
:102140000E941F02DC01CB01BC01CD010E944900AD
:10215000DC01CB019EAF8DAF0FC089E190E09CAF59
:102160008BAF8BAD9CAD0197F1F79CAF8BAF8DAD75
:102170009EAD01979EAF8DAF8DAD9EAD009769F777
:1021800016C0FE01FF9660817181828193810E9459
:102190004900DC01CB019EAF8DAF8DAD9EAD9AAFF6
:1021A00089AF89AD9AAD0197F1F79AAF89AF0E94D7
:1021B000DA0EFE01E55BFF4F1082FE01E65BFF4F8A
:1021C00083E08083FE01E75BFF4F10820E94DA0EFE
:1021D000FE01E65BFF4F83E08083D3C187E790E099
:1021E0000E94200E81E060E00E94490EFE01E55B46
:1021F000FF4F10822DC00E94BB0FFE01E85BFF4F16
:102200008083FE01E85BFF4F80818F3FA1F3FE01D9
:10221000E55BFF4F8081882F90E0FC01E059FE4F85
:102220009081FE01E85BFF4F8081981729F0FE0145
:10223000E75BFF4F81E080838AE20E94820DDE012E
:10224000A55BBF4FFE01E55BFF4F80818F5F8C93E5
:10225000FE01E55BFF4F8081843068F2FE01E75BA1
:10226000FF4F8081813009F081C081E060E00E94F1
:10227000490E87E890E00E94200E80E090E0AAEFEF
:10228000B4E48DAB9EABAFABB8AF6DA97EA98FA9FF
:1022900098AD20E030E04AE753E40E941F02DC01E1
:1022A000CB0189AB9AABABABBCAB69A97AA98BA9C3
:1022B0009CA920E030E040E85FE30E947903882396
:1022C0002CF481E090E098AB8FA73FC069A97AA970
:1022D0008BA99CA920E03FEF4FE757E40E94190328
:1022E00018164CF56DA97EA98FA998AD20E030E0B5
:1022F00040E251E40E941F02DC01CB01BC01CD0190
:102300000E944900DC01CB0198AB8FA70FC089E187
:1023100090E09EA78DA78DA59EA50197F1F79EA79A
:102320008DA78FA598A9019798AB8FA78FA598A97E
:10233000009769F714C069A97AA98BA99CA90E9482
:102340004900DC01CB0198AB8FA78FA598A99CA76A
:102350008BA78BA59CA50197F1F79CA78BA70E9443
:10236000DA0EFE01E75BFF4F108202C1FE01E75B60
:10237000FF4F8081882309F0FBC00E94DA0E86E9B6
:1023800090E00E94200E81E060E00E94490E8CE9FE
:1023900090E00E94200E0E941D150E942E1580E0E4
:1023A00090E0AAEFB4E48FA398A7A9A7BAA76FA15A
:1023B00078A589A59AA520E030E04AE753E40E9479
:1023C0001F02DC01CB018BA39CA3ADA3BEA36BA119
:1023D0007CA18DA19EA120E030E040E85FE30E9457
:1023E000790388232CF481E090E09AA389A33FC06D
:1023F0006BA17CA18DA19EA120E03FEF4FE757E4A8
:102400000E94190318164CF56FA178A589A59AA505
:1024100020E030E040E251E40E941F02DC01CB01E9
:10242000BC01CD010E944900DC01CB019AA389A324
:102430000FC089E190E098A38F8F8F8D98A10197AD
:10244000F1F798A38F8F89A19AA101979AA389A3E5
:1024500089A19AA1009769F714C06BA17CA18DA1F5
:102460009EA10E944900DC01CB019AA389A389A106
:102470009AA19E8F8D8F8D8D9E8D0197F1F79E8FE6
:102480008D8F0E943F1580E090E0AAEFB4E4898F21
:102490009A8FAB8FBC8F698D7A8D8B8D9C8D20E050
:1024A00030E04AE753E40E941F02DC01CB018D8B30
:1024B0009E8BAF8BB88F6D897E898F89988D20E038
:1024C00030E040E85FE30E94790388232CF481E048
:1024D00090E09C8B8B8B3FC06D897E898F89988D16
:1024E00020E03FEF4FE757E40E94190318164CF520
:1024F000698D7A8D8B8D9C8D20E030E040E251E437
:102500000E941F02DC01CB01BC01CD010E944900E9
:10251000DC01CB019C8B8B8B0FC089E190E09A8B07
:10252000898B89899A890197F1F79A8B898B8B8995
:102530009C8901979C8B8B8B8B899C89009769F771
:1025400014C06D897E898F89988D0E944900DC01B5
:10255000CB019C8B8B8B8B899C89988B8F878F85EC
:1025600098890197F1F7988B8F870E94501510C0BA
:10257000DE01A65BBF4FFE01E65BFF4F808181500D
:102580008C93FE01E65BFF4F8081882309F026CE05
:10259000FE01E65BFF4F8081882309F0BBC080E02D
:1025A00060E00E94490E8CEA90E00E94200E81E0DB
:1025B00060E00E94490E83EB90E00E94200E0E9492
:1025C000DA0E85EC90E00E94200E81E060E00E942F
:1025D000490E8EEC90E00E94200E83E065E041E021
:1025E0000E941C0A83E065E041E00E94B8080E9456
:1025F000BB0FFE01E95BFF4F8083FE01E95BFF4FEC
:1026000080818332A1F783E065E040E00E94B80852
:102610000E94DA0E8EED90E00E94200E80E090E0A5
:10262000AAEFB4E48B879C87AD87BE876B857C85DA
:102630008D859E8520E030E04AE753E40E941F022A
:10264000DC01CB018F839887A987BA876F81788552
:1026500089859A8520E030E040E85FE30E947903B5
:1026600088232CF481E090E09E838D833FC06F81AE
:10267000788589859A8520E03FEF4FE757E40E94EF
:10268000190318164CF56B857C858D859E8520E099
:1026900030E040E251E40E941F02DC01CB01BC01AA
:1026A000CD010E944900DC01CB019E838D830FC0C8
:1026B00089E190E09C838B838B819C810197F1F76A
:1026C0009C838B838D819E8101979E838D838D81D9
:1026D0009E81009769F714C06F81788589859A85F6
:1026E0000E944900DC01CB019E838D838D819E81F8
:1026F0009A83898389819A810197F1F79A838983E3
:10270000FE01E65BFF4F83E08083FE01E75BFF4F46
:1027100010825CCD0E94E41480E090E0C55BDF4F46
:102720000FB6F894DEBF0FBECDBFCF91DF911F91E2
:102730000F910895DF93CF9300D000D00F92CDB7C3
:10274000DEB78D831C828D81813359F483E063E091
:1027500041E00E941C0A83E063E041E00E94B80867
:102760000DC08D81823351F483E064E041E00E942A
:102770001C0A83E064E041E00E94B8080E94DA0E7F
:1027800088EE90E00E94200E80E069E00E94490EF1
:1027900081EF90E00E94200E81E060E00E94490EEF
:1027A00087EF90E00E94200E81E069E00E94490ED0
:1027B0008DEF90E00E94200E0E94BB0F8C838C81D5
:1027C0008F3FD1F38C810E946B0F8C81813309F094
:1027D00047C01B820E94DA0E8AE00E94550F8B834D
:1027E00085E091E00E94200E8B81813029F48DE0FC
:1027F00091E00E94200E07C08B81882321F480E1A4
:1028000091E00E94200E81E060E00E94490E84E188
:1028100091E00E94200E81E067E00E94490E8AE16B
:1028200091E00E94200E0E94BB0F8C838C818F3F11
:10283000D1F38C810E946B0F8D81813331F483E061
:1028400063E040E00E94B80808C08D81823329F41B
:1028500083E064E040E00E94B8080E94E414ACC049
:102860008C81823309F047C01A820E94DA0E8AE016
:102870000E94550F8A8385E091E00E94200E8A8194
:10288000813029F48DE091E00E94200E07C08A81FA
:10289000882321F480E191E00E94200E81E060E035
:1028A0000E94490E84E191E00E94200E81E067E0E1
:1028B0000E94490E8AE191E00E94200E0E94BB0F07
:1028C0008C838C818F3FD1F38C810E946B0F8D8123
:1028D000813331F483E063E040E00E94B80808C02F
:1028E0008D81823329F483E064E040E00E94B808DF
:1028F0000E94E41461C08C81833309F047C01982BF
:102900000E94DA0E8AE00E94550F898385E091E0EB
:102910000E94200E8981813029F48DE091E00E948F
:10292000200E07C08981882321F480E191E00E9474
:10293000200E81E060E00E94490E84E191E00E9457
:10294000200E81E067E00E94490E8AE191E00E943A
:10295000200E0E94BB0F8C838C818F3FD1F38C8122
:102960000E946B0F8D81813331F483E063E040E09E
:102970000E94B80808C08D81823329F483E064E0A6
:1029800040E00E94B8080E94E41416C08C81843391
:1029900099F48D81813331F483E063E040E00E945B
:1029A000B80808C08D81823329F483E064E040E0F8
:1029B0000E94B8080E94E4140F900F900F900F909F
:1029C0000F90CF91DF910895DF93CF9300D0CDB7D3
:1029D000DEB71A8219820E94DA0E80E291E00E942C
:1029E000200E81E060E00E94490E81E391E00E94A8
:1029F000200E81E068E00E94490E89E391E00E9488
:102A0000200E0E94BB0F8A838A818F3FD1F38A8177
:102A1000882311F081E089838981813049F48A819A
:102A20000E946B0F8A810E94820D8A810E949A13F4
:102A30000F900F90CF91DF910895DF93CF93CDB793
:102A4000DEB783E066E041E00E941C0A83E067E0B5
:102A500041E00E941C0ACF91DF910895DF93CF934C
:102A6000CDB7DEB783E066E041E00E94B80883E0BE
:102A700067E040E00E94B808CF91DF910895DF93AE
:102A8000CF93CDB7DEB783E066E040E00E94B808A0
:102A900083E067E041E00E94B808CF91DF9108959C
:102AA000DF93CF93CDB7DEB783E066E040E00E94CE
:102AB000B80883E067E040E00E94B808CF91DF915A
:102AC0000895A1E21A2EAA1BBB1BFD010DC0AA1F6F
:102AD000BB1FEE1FFF1FA217B307E407F50720F087
:102AE000A21BB30BE40BF50B661F771F881F991F02
:102AF0001A9469F760957095809590959B01AC014B
:102B0000BD01CF0108952F923F924F925F926F9235
:102B10007F928F929F92AF92BF92CF92DF92EF926D
:102B2000FF920F931F93CF93DF93CDB7DEB7CA1BEE
:102B3000DB0B0FB6F894DEBF0FBECDBF09942A8819
:102B4000398848885F846E847D848C849B84AA84C1
:102B5000B984C884DF80EE80FD800C811B81AA814E
:102B6000B981CE0FD11D0FB6F894DEBF0FBECDBF19
:082B7000ED010895F894FFCF78
:102B7800484F4C412C00494E20555220534D41524C
:102B88005420484F4D4500456E74657220596F7545
:102B98007220506173730057524F4E472050415373
:102BA80053574F524400484559212100594F552742
:102BB800526520476F6F64204D616E00534F52522B
:102BC800592C00596F75205472696564203320545C
:102BD800696D657300414C41524D204F4E00507253
:102BE800657373202320746F2053746F7000414CF9
:102BF80041524D204F464600312D4C4947485420FC
:102C080000322D41432000332D54562000342D52DC
:102C18006F6F6D73005374617475733A004F4E0093
:102C28004F464600312D4F4E2000322D4F4646006C
:102C3800504C5A2043686F6F736520526F6F6D3A1E
:102C480000312D524F4F4D3100322D524F4F4D32E2
:102C58000000000000000000003031323334353607
:102C680037383930313233343536373839010203A1
:102C7800040506073132333435363738392A3023DC
:042C8800313233347E
:00000001FF
